:1000000010000000005000004D450A56010000009D
:10001000001800201D030000DD020000E1020000C6
:10002000E5020000E9020000ED020000000000000F
:10003000000000000000000000000000F1020000CD
:10004000F502000000000000F9020000FD020000BF
:10005000D50000009D01000021010000C10000004A
:10006000D90100000102000019030000190300007B
:100070001903000019030000190300001903000010
:100080001903000019030000190300001903000000
:1000900019030000190300001903000019030000F0
:1000A00019030000190300001903000019030000E0
:1000B00019030000190300001903000019030000D0
:1000C00019030000190300001903000019030000C0
:1000D000034A002313708022D20513707047C04674
:1000E0000000002000B50F4A002353708023DB0579
:1000F000D86B0D490140D963D86B0C490140D963D5
:10010000917800290CD05168DA6B0902120E090AA5
:1001100012060A43DA63D96B802252040A43DA6377
:1001200000BDC04600000020FFFFFFFEFFFFFFEF05
:1001300010B5A022D20594686407640FE3B2022BC5
:100140000AD0042B14D0012B16D1144B00211960B6
:10015000127B134B1A800FE0124B1B7A022B03D138
:100160000E4B1A6808321A600F4B1B68984703E061
:100170000A4B1A6808321A600A4B01211C72A0232C
:10018000DB051A680A431A60C046C046C046C0462E
:100190001A6810210A431A6010BDC04620000020D2
:1001A0001C000020000000201000002010B5A0233B
:1001B000DB051A6801210A431A601A6810210A43F4
:1001C0001A60064B1B689847054C237A022B02D114
:1001D000044B1B6898470023237210BD14000020B5
:1001E000000000200C000020064B00225A728023E1
:1001F000DB051968044A0A401A601968034A0A4074
:100200001A60704700000020FFFFF0FFFFFF0FFFA4
:100210007047C0467047064B01221A708023DB05E9
:100220000021597019680F2081430A431A607047F2
:1002300000000020064B01221A708023DB0519689C
:10024000044A0A40802149020A431A607047C046A6
:1002500009000020FFFFF0FF00B5064B72B61A78C8
:10026000002A04D0C046C04662B630BFF6E762B688
:1002700000BDC04609000020054B01221A708023F2
:10028000DB05D96B802252040A43DA637047C0460B
:100290000100002000B5054B72B61A78002A03D081
:1002A000C046C04662B6F7E762B600BD0000002057
:1002B00000B50B4B0B4A72B61978002902D11178A0
:1002C000002904D0C046C04662B630BFF3E762B62C
:1002D000054A1278002A01D001221A7000BDC046DA
:1002E00001000020000000200200002000B5FEE711
:1002F00000B5FEE700B5FEE700B5FEE700B5FEE796
:1003000000B5FEE700B5FEE700B5FEE700B5FEE785
:1003100000B5FEE700B5FEE700B5FEE700B5FEE775
:1003200000B5FEE700B5FEE700B5FEE708B5FF2320
:1003300000221B041A60BFF36F8F00F06DF808BD38
:10034000FFFFFFFFFFFFFFFFFFFFFFFFFFFFFFFFBD
:10035000FFFFFFFFFFFFFFFFFFFFFFFFFFFFFFFFAD
:10036000FFFFFFFFFFFFFFFFFFFFFFFFFFFFFFFF9D
:10037000FFFFFFFFFFFFFFFFFFFFFFFFFFFFFFFF8D
:10038000FFFFFFFFFFFFFFFFFFFFFFFFFFFFFFFF7D
:10039000FFFFFFFFFFFFFFFFFFFFFFFFFFFFFFFF6D
:1003A000FFFFFFFFFFFFFFFFFFFFFFFFFFFFFFFF5D
:1003B000FFFFFFFFFFFFFFFFFFFFFFFFFFFFFFFF4D
:1003C000FFFFFFFFFFFFFFFFFFFFFFFFFFFFFFFF3D
:1003D000FFFFFFFFFFFFFFFFFFFFFFFFFFFFFFFF2D
:1003E000FFFFFFFFFFFFFFFFFFFFFFFFFFFFFFFF1D
:1003F000FFFFFFFFFFFFFFFFFFFFFFFFFFFFFFFF0D
:10040000FFFFFFFFFFFFFFFFFFFFFFFFFFFFFF01FA
:100410004D314830434F3434F8B58A4B00241C70BA
:100420008023DB059968802292000A439A609968CC
:100430008022D2000A439A609968802212010A43FE
:100440009A6002F065FE00F05DFD00F075FD7E4BE8
:10045000AA2218707D4B1A7003F06EFB201C03F06B
:10046000DBFD201C02F02AFB794B7A4F0833DB7F3F
:100470005A4253411022D21A774B1A703B78002B04
:100480001DD1764A012413703C7000F083F9744B3F
:10049000201C9A785A7003F0BFFD02F06DFD00F049
:1004A00007FE8023DB05596B6E4A0A405A6300F051
:1004B000B7FA02F050FA00F0FBFD00F0C3FD674B05
:1004C0001B78002B1AD0684C2378002B16D0674B72
:1004D00013201B68984700F05DF902F0E9FC00204A
:1004E00000F0E6FB00F0A6FA614A01231370614AAE
:1004F000138002F059FA2378002BFCD100F02CFD78
:10050000554B1A781E7873B20F2B17D005DC002BD1
:1005100039D00D2B00D091E02AE0112B21D003DB44
:10052000132B00D08AE087E04C4B00221A7000F0B9
:100530003BFB514B1B78002B00D07FE0484B587899
:1005400002F0D2FD424DE87B02F09CFA4B4C606019
:10055000287C02F097FA1123A060EB56EA7B534304
:10056000E3603E4B00221A70454B187800F0A0FB68
:100570003A4B00241C7000F053FA02F0EFFD00F03B
:100580004FFA354B1C70354B01221A7000F012F9EE
:10059000FFF772FEFFF73FFE01203A49404203F0A9
:1005A00061F9324C06202368984702F04BFE02F0B6
:1005B0005BFE00F0A7F823680720984703F096F940
:1005C000314B1B78002B18D100F090FDFFF732FE65
:1005D000FFF742FE00F016FE01F006FC01F04AFCB7
:1005E000236812209847294B1B78002B01D101F07A
:1005F00003FE1E4B0D201B68984700F023F9224B89
:100600001B78002B0CD101F075FD01F074FE174B27
:100610000F201B6898471E4B1B68984702F088F80C
:1006200080230122DB055A70FFF742FE194B0020A0
:10063000185600F0A3FC01E000F0F2F9164B1E7012
:100640001CE7C04652040020460400204704002056
:100650007E0C002051040020C0070020530400201D
:100660006C0D0020FFC0FFFF4E0400206406002038
:10067000CF070020B40700204B040020EC0000202E
:10068000A21000206C1300207413002048040020E6
:1006900018000020220400203100002008B501F0DD
:1006A000A5FD124B1B68984711490E230022013B00
:1006B000DBB2181C1430400008188280002BF6D1E1
:1006C0000C490A22013AD2B28B54002AFAD10A4BC1
:1006D0000A491B7802E0013BDBB2CA54002BFAD175
:1006E000034A1360064A136008BDC0461800002084
:1006F0005801002094100020380C00200D0C002020
:10070000FC00002010B5194B1B78002B2DD0184C85
:1007100000232370174B04201B6898472278164B40
:10072000002A03D1154A1278002A1DD0144901224B
:100730000A701968914204DC89181960114B1A700B
:1007400013E0114B1968002908DC013119600F4BC7
:100750001A70FFF7A3FF0E4B0D221A70064A0023F2
:100760001360064A137000E01A6010BDBA0700203B
:1007700073130020640600200804002001040020F8
:10078000741300200C0C00200404002052040020EC
:10079000C007002010B503F003FA054C00202368C1
:1007A000984703F01FFA23680120984710BDC04600
:1007B0006406002010B51C4B19781C4B4AB21C78FB
:1007C000002C22D01A4B00241B78A3421DD1194BB8
:1007D000A14207D018490978A14203D117490968F5
:1007E000A14203D00021196001240EE014491868C9
:1007F000C968884201DA01301860022A10D00D4B16
:1008000002241B688B4203DA0AE063B2934207D0EA
:100810000B4A63B29B00D05802F064F9024B1C7083
:1008200002F052F910BDC04628000020BA0700208F
:100830004D04002044000020550400201401002035
:10084000EC00002073B5624900230522013AD2B2C0
:10085000101C0E30C00008180424005F002800D0CF
:100860000123002AF2D15B4A5B49127807E0013A82
:10087000D2B2101D4000405E002800D00123002AA3
:10088000F5D15649002B04D10A685548824201D05F
:1008900001320A60534900220A70934250D14E4AF5
:1008A0001268002A4CD150480278041C012A0AD14F
:1008B0004E480578002D06D14D4C027023704D4CEA
:1008C0000A70237015E04C4B1B680E2B11DD23784A
:1008D000012B0ED0494A136801331360022B08DD47
:1008E00000231360434A1370404A13703D4B0222A9
:1008F0001A70434B00221A703F4B1A60414B196823
:10090000914208DD01391960012960D11A60354B27
:1009100003221A705BE03C4A3C494E3212888A42FC
:1009200055D03B490968914251DB3A4A2B48111C8A
:10093000343109780068884249DB3532127817E093
:10094000304A2A4D002313602A78324C9A4218D03C
:100950002F4A1168304A1180208E294A814209DAD3
:100960001378002B33D1244B1A680E2A2FDC013266
:100970001A602CE0012111701F4A13601F4A136096
:1009800025E0264B668D1868A18D238DE28D00969B
:1009900003F05BF92B78002B19D1164B19781A1C30
:1009A000002907D1218D194B994210D0184B1B6893
:1009B00083420CDB0E4900230B700C49137001229B
:1009C0000A700F490B70074B1A7001F00FFC73BDD2
:1009D000C4020020380C0020140100203004002044
:1009E000FFFFFF7F2204002032000020450400208A
:1009F0002304002044040020400400203804002088
:100A00003C04002034040020A2100020FFFF00005E
:100A10006C1300207E0C0020CC140020E00300208A
:100A200008B5FFF7F8FB80230122DB055A70FFF7BA
:100A300031FC08BDF0B587B00024FFF7F1FF504D41
:100A40000C21E8794F4A50E016264E434F1C7D009A
:100A50001423039604970595013BDBB2002C1DD0AF
:100A6000039E494FF5186D00EE5F049F5D1C2D013C
:100A7000ED196D00575BAD5A0741F71B0541002F7B
:100A800001DB751B00E0AD1B039E6D10F7183F4E98
:100A9000BE5DB54200DA351C3C4EBD55049F5D1C61
:100AA0002D01ED196D00565B039D0641ED18B6B2A0
:100AB0000196354F6E00029600956D46BC46AF8894
:100AC000029D6646AF53002C03D1304D009E7455F5
:100AD00009E0632C07D1059DAF5A019D07417E1B9C
:100AE0002B4F029DEE53002BB6D10139C9B2FF291D
:100AF000AAD1234A274BD1791B78224A36E0013B01
:100B0000254EDBB2F75C002C1BD024487E1C36013E
:100B10009D002D58B446581C039060444000165A5E
:100B2000805A0E41AE1B0841002E01DB281A00E05E
:100B3000401B1B4E4010F55CA84200DA281C184DE3
:100B4000E85401375D1C3F017F197F00D05B134FD4
:100B500008419E00F051002C08D1114F6D00FC544B
:100B6000AD5A5F000D41281A0E4D7853002BC6D1A7
:100B70000134E4B2642C00D05FE707B0F0BDC0469A
:100B8000A2100020000800400A110020740D00206F
:100B9000840E0020380C00201E4D00007C06002032
:100BA0006A0D00209E100020F7B501F0E7FE01F06D
:100BB00009FF0028FBD1384B1B78022B09D0374B9B
:100BC00037494C331A7853425418E0540133934256
:100BD000FADD324E334F331C4C331C7864420CE048
:100BE000BA7880231219D2B2DB051A71FFF718FF09
:100BF0002878201802F00EFE0134351C4C352B7875
:100C00009C42EDDD002624E02C782F1C64424C3FF2
:100C100019E0244B9A7880231219D2B2DB051A719D
:100C2000FFF7FEFE2D7801A96519281C02F01AFEB7
:100C30001B49019B4A5DFF2B00DDFF239A4200DA2E
:100C40001A1C4A5501343D1C4C352B789C42E0DD82
:100C50000136154A114D13784C359E42D4DB01F014
:100C60007AFE2C780122121B0D4B00210F480BE05D
:100C70005D781E786D0075199E78AD19A84201DB6C
:100C8000A8B2111C013201339442F1DC054B9A7871
:100C90005118C9B25970F7BD4B040020A2100020B2
:100CA0000E0400206C0D0020ED100020FFFF00005E
:100CB000F0B591B0854D0690A9798023DB057F22A0
:100CC0001140834C9A6B090622400A439A6384229E
:100CD00080480021D20003F0CDF8069C7E4B002C0A
:100CE00008D02D7B5B8869B21AB2914209DB5D1E88
:100CF000EDB206E0794A9B7812785BB2002A05D102
:100D00000BE06B42DBB20393012311E05B005B421B
:100D10001F1C103708DA102305E05B005B42181C2B
:100D2000083001DA08235B42DBB20393002502237B
:100D300000245BB20295049409937AE00024201CFD
:100D4000311C099A013401F0D6FF142CF7D1201C74
:100D5000311C099A02F046F8FFF762FE5F4B0F273D
:100D60001B78049C0B93594B5D49DF575D4E0C97E4
:100D7000DB795D4807936BB21B1B05910C225B4925
:100D80000F934CE01F1C06E0B024640013195B00B5
:100D900015270E930192069C7B1E002C0DD00B9AFA
:100DA000002A01D0CA5601E0CC5662100C9C1219E0
:100DB0000F9C1219D41D0E2C28D84D4C142B03D186
:100DC0004C4F0E9ABF5A05E0019A3F01BF18494A9D
:100DD0007F00D75B079A1741E41B9F000897C7590C
:100DE000A74213DC444A3F1B974200DA171C5A0003
:100DF0000D92424A974200DD171C0D9AB752089F88
:100E00006A46C4510824A45C059AD454002BB9D175
:100E1000059F0A9A163F2C3E583805971839531EDD
:100E20000A93B1D2029B049C013BDBB201340293D2
:100E300004946F4608200C21C657CB579E4200DB16
:100E40007CE7069C002C09D0244B254A1F782C48AF
:100E50001E4B2649DE7BDD7A141818E0002419E0C9
:100E60001523013BD05C8446002F01D0C85C02E012
:100E7000C8564010C0B2B4446044C0B2D054132B22
:100E800001DC4019D054002BEBD1163A1839A2429C
:100E9000E6D1E3E70021201C0A1C013401F02BFFFE
:100EA000142CF7D10021201C0A1C01F09BFF074BDA
:100EB0007F229C798023DB05224005499C6B12062A
:100EC0000C40144311B09C63F0BDC046A21000203A
:100ED000FFFFFF80D00700206C0600209800002054
:100EE000660E0020EE120020980B00202A4E000013
:100EF000FFFF0000000800400080FFFFFF7F0000B0
:100F0000F8FEFFFF70B580232B250A4C5B006D4275
:100F1000013BDAB2092106E056B25000C2B2002EFF
:100F200001DA6840C2B201390029F5D1E254002B40
:100F3000EED170BD5804002010B50020A022054954
:100F4000031CD2011C7801336040085C9342F9D144
:100F500010BDC0465804002008B5064B1B68002B86
:100F600006D0054B1B78002B02D101F01DFDFEE7DA
:100F700008BDC0460C1600205404002010B5041E05
:100F800027DD022C02DD032C23D132E0FFF786FBA4
:100F90002048022C04D120495C2202F02DFF0BE0F6
:100FA0001E495C2202F028FF1D4B1B78012B03D049
:100FB0001C4B0B201B689847FFF7ECFB1A4B363392
:100FC0001A781A4B1A701B78102B22D101F070FF7F
:100FD0001FE0174B1A78002A05D0164A1168013114
:100FE000116000221A70144B1A68132A04DD0022C3
:100FF0001A6010220D4B0BE00E4B1A683B2A08DDDD
:1010000000221A600D4B01201B6898470C4B0122EF
:101010001A7010BDA2100020404C00009C4C000033
:1010200032000020640600207E0C0020C007002053
:101030002C0400202804002024040020600000204C
:101040004F04002010B5164B00221A60154B0122E8
:1010500052425A60144B154C187E0138421E904182
:10106000011C123121605A7E4042013A531E9A41BE
:10107000131C0B3363601523034023815242142356
:101080001340962063814900000102F053FEF023D3
:101090005B006361C8239B00E0602061A36110BD19
:1010A000C4020020FC0000207E0C0020180C002050
:1010B00010B50C490D230022A024580064004252B0
:1010C0001819400042520748013BF5D21323002271
:1010D000591E06D3044C5B01C2521B191A800B1C0B
:1010E000F6E710BD000800401A08004000B50F4B9D
:1010F0000E215A5E0E4B191C413109781B7F4A4361
:101100005BB292119A4200DA1A1C0A4B1A608023D1
:10111000DB05196B12050903090B11431963186BE1
:10112000110B054A02400A431A6300BDE003002088
:10113000A2100020800E0020FF00F0FF30B5304DDF
:10114000039C2D78002D55D1002A04D18C225242C7
:101150006243D21106E0012A06D1192252426243AB
:10116000D211A21802601CE0022A03D106226500F7
:10117000624306E0092A07D1A200E500A21A2D1950
:101180005200D211AA18EDE7151C65430A2A01D1B5
:10119000192202E00B2A03D18C226243D211AD182E
:1011A0000560002B04D1C8235B425C43E41124E0BA
:1011B000012B03D1A3001B19DB110FE0022B01D17E
:1011C00064001AE0102B01D1240116E0112B07D185
:1011D000A200230152421B19141BE4111C190CE03C
:1011E0001A1C6243122B03D1C8235C43E411121969
:1011F0000A6003E062435C4302600C6030BDC0469D
:101200004A040020F0B5842291B000215200B94870
:1012100002F030FEB84C8E2200215200201C02F059
:1012200029FE0E277F21FF22013FFFB23B1C3833EE
:101230009B00E31899711971DA715A71002FF3D17B
:10124000AE4B1F83AE4B9A680A2A01DC01329A60CA
:10125000DA68002A01DD013ADA601A68112A01DC35
:1012600001321A605A68002A01DD013A5A60A44B23
:1012700000249D6818236B43049409930B9766E13F
:101280001C685BE1631C691C9E4A1B015B18995C2E
:101290009D4A4E1EF6B20D2E5DD8099F9B485B00FD
:1012A0003818049FC01900194176D35A68468381C3
:1012B0009FB2924B0DA81A8B0EA901321A832A1CD9
:1012C000231C0097FFF73AFF8B4BB2009A18506827
:1012D0000D9941185160321C0E329100591848681E
:1012E000D20084460E989A18604448609188042081
:1012F00079189180518901315181321C3832910025
:1013000059180856854200DA0D7192009A18052185
:1013100051568D4200DD5571311C38318A009B18C1
:1013200006229A56944200DA9C71734A8B00D318B5
:10133000072159568C4200DDDC710E36F6009219F9
:101340000621535EBB4200DBF7E06B469B8954727B
:10135000D3801572F1E05B00D35A0393002B00D1C8
:10136000EBE06B4F00230F930426BC460FAA013E0F
:10137000F6B26046674F815DBB5D091949B25B19E2
:1013800001315BB209015F480133CB18C15C002316
:10139000C8B2471E0D2F03D909E00133DBB200E0CC
:1013A00040B2D75C002F01D08742F6D1D154002E35
:1013B000DDD1331C0FAA9A5CDFB2002A04D00133BE
:1013C000042BF7D11F1C02E0002F00D1B5E00999D2
:1013D0004E4B049ACB189B183A1C1B190F325A76A5
:1013E000039B2A1C00930DA8231C0EA9FFF7A6FE41
:1013F000391C0D9802F09EFC391C06900E9802F0E4
:1014000099FC391C0790039802F094FC7B1E414222
:10141000002208930A910592374B02901EE0925DDC
:101420000136013A52B29100591848680E3284468A
:101430000698F6B28444604648609100591848689E
:10144000D200844607989A18844460464860918880
:10145000029841189180518901315181059A039870
:1014600011180A981218089805920FAA8642D6DB1E
:101470000391905D013840B286009E1971680E306C
:101480008C4606998C446146716086009E1971688D
:10149000C0008C4607991B188C446146716098887F
:1014A000039EA4463118998059890131598101213F
:1014B00000233EE03C20C0186E46845D601E039C05
:1014C000C0B20590A05C461E0598F6B2B04206D2A6
:1014D00016244443A619074C0120A05508E0162005
:1014E0004643059C034836190596059C012606557A
:1014F000013217E05805002088060020E003002094
:101500001C1300200002004000040040751300205E
:10151000343F0000383F00004CB20FAE36190022B5
:1015200003960694069C1019B842C3DB01310133BF
:10153000C9B2089EB342EFDB6446013C4B4B5B688B
:101540009C4200DB9EE6049F013D183F0497474BF9
:10155000DA68954200DB93E600250B9F2E1C444C75
:1015600073001B1974331B88002B32D0341918B246
:10157000039060680399C00102F0DCFB6060E06BDF
:101580000399C00102F0D6FB231CE063E5331A780F
:1015900051B20A2901DC01321A70231CE4331A7893
:1015A00051B2002901DD013A1A70231CE7331A7881
:1015B00051B2112901DC01321A70E63423785AB293
:1015C000002A01DD013B23700135EDB204360E2DFA
:1015D000C5D1274B274A1D600132D07F13E03A1C4A
:1015E0000E32D10059180424095F002909D0B9002E
:1015F000920059189A184C685668002801D04E601D
:1016000054600137FFB2AF42E9DB1B4B1B481A782D
:101610001B4B191C37331E7836310F780368B446DC
:101620001EE0013AD2B2174D5100695A0EB2F6438C
:10163000F6170E40111D4900B5B20E52002D0FD005
:10164000114E2DB28E5F002E04DCBD4207DA00255C
:101650000D5205E0654502DA00260E5200E0013326
:10166000002ADED1054A11B01360F0BD1C13002022
:10167000880600207E0C0020380C00201401002079
:10168000A21000209E10002008010020F0B5A64CFA
:10169000431C8FB0DBB20A932368071C0E37013B53
:1016A0002360FB00E318039202930897051C0420B3
:1016B0001F5E0E1C05970F1C0E37FB00E3180493EA
:1016C000099704201F5E05980697C71907978B0096
:1016D000AF00E719E3187868059A5B6806995043EC
:1016E0004B430799181802F025FB00B27860089B5D
:1016F00009989F008300E719E3187868059A5B68EA
:10170000069950434B430799181802F013FB00B297
:101710007860281C38308000201803990422043097
:1017200002F06AFB049FFB88029F1AB20621795ED1
:10173000914209DA029FFB80049F7B7A029F7B72B1
:10174000049F3B7A029F3B722A1C331C0E320E33DD
:10175000D200DB00E318A4189988A2888A18A28016
:10176000598962898A18F1B2481C40B20290162049
:1017700068436281029C002220189A800490131C06
:1017800006910EE0162474430499A4467818029931
:101790008C446744C15CFC5C2143C1540020F85474
:1017A00001330132069CD2B2101940B25F4F0D28AE
:1017B000E8DD16206843BA190023C71911E0AB42CF
:1017C00005DA911B4C5D10782043485505E0AB428B
:1017D00003DD1078F95C0143F954002111700133E5
:1017E0001632B342EBDB039F68463F781021049723
:1017F00008561827079047430022AC465EE0039C3A
:101800000020A1784A4C4DB27B191B1908950D9305
:101810004CE0089B0D9CC31824180993637E079D18
:10182000013B5519DBB20B95029405936D461424C8
:1018300063570F2B37DD0023012506936D420423E8
:101840000092013B3B4CDBB2E4563B4A0C94D2562F
:101850000B9CA418013418226243354CA418099A31
:10186000A2180C9C019214190C946478013CE4B207
:101870000D2C0DD864B2644501D0B44208D16A1C65
:1018800002D0A54202D103E0251C01E00124069408
:10189000002BD6D1069D009A002D04D06B4614244F
:1018A000E45C029B5C760131C9B20130039D0324E4
:1018B0002C574BB29C42ACDA013218370498039C87
:1018C0000121131861565BB2994298DA23780020FF
:1018D0005DB201351824AC461EE0039D67463A18F8
:1018E000A97862434DB20135AA18114D52190AE088
:1018F0001578013D6DB2B54202D10AAF3F7817703D
:101900000131C9B20132039D0327EF574DB2AF42F7
:10191000EEDA0133DBB20130039F012179565AB26E
:101920009142DADA0FB0F0BD880600205805002099
:1019300075130020343F0000383F000010B50B78CD
:10194000002404575AB2944200DD03704B780124FE
:1019500004575AB2944200DA43708B780224045739
:101960005AB2944200DD8370CB78032141565AB2BB
:10197000914200DAC37010BDF0B58BB00024231C77
:101980000E333C48DB00C31804215A5E002A6BD09A
:101990005A7A02921B7A18221F1C013F7A43039342
:1019A000354BD3180193029B01331801059307901F
:1019B00055E0029E013E4BE00198192583195D57C1
:1019C0007A1C013D711C0D2D41D8AC423FD009015C
:1019D00088182A4B00914000C05A0690201C0E30F7
:1019E000C1002448844661440620095E2448408D95
:1019F0008446069881422ADC60464143881100995A
:101A00008C4604998C4461464900C95A88421EDAC2
:101A100007998A185200D35A984218DAA54202DA76
:101A2000231C2C1C1D1C2A1C124B3832211C92001A
:101A300038319A1889005268C918043109A80992E6
:101A4000FFF77CFF201C291C09AAFFF71FFE0236A6
:101A5000059A9642B0DD019B02373033019303981B
:101A6000013004908742A4DD01340D2C87DD0BB0DA
:101A7000F0BDC04688060020751300200004004019
:101A8000A2100020F0B5CC4B9FB01A68CB4B012AB6
:101A900009D1CB4A1268012A05DD9E8C0C96DE8C9A
:101AA00009961B8D04E0DE8B0C961E8C09965B8CD0
:101AB0000D930D247CE116236343C24E5B199B5D9D
:101AC000002B00D16EE1BE4EA700AB00F719F31852
:101AD0007A6803935B68201CD31A0E300A93291C82
:101AE0008300F3180E3105938B00F31806930490CE
:101AF000059B06985A6843680291D31A0A99D81729
:101B0000CA170B931B1889184340514008932B1C8C
:101B100007913833211C9B003831F31889005B682A
:101B2000891904311DA81D93FFF708FF02997868F1
:101B3000CB001790F31804215A5E04990292CB004F
:101B4000039AF6185768029B0422B65E0299F318AE
:101B50000393331C7B4348430399C01802F0EAF80F
:101B6000059A1890069853680299199747681A932E
:101B70007E434B430399981902F0DCF80C221B902A
:101B8000002114A81C9702F075F975226A44127896
:101B9000762352B210926B441B7877265BB2119376
:101BA0006E4436781DA876B212960022825618200E
:101BB000571C4243844B0026D31805961393B5E077
:101BC000069EF6010E96119EA5E0139805994318FE
:101BD0009B191B7E5BB20393013B0D2B42DD002062
:101BE00001214942844604230196013B774ADBB236
:101BF000D256774E0492F656069A9219013218265A
:101C00005643714A9219029E9619049A0F96B21879
:101C10000492527852B2013A0D2A0ED8AA4201D04B
:101C2000A24204D14E1C04D0914204D105E001200F
:101C300003E0111C01E001229446002BD5D1019E46
:101C4000013168D03201D219624B5200002813D002
:101C50006046002810D10399985A0F3902F06AF8AB
:101C600003900BE0002B56DBAB4201D0A34252D1D4
:101C70003201D219574B5200D35A039303990029CA
:101C800049D0029A0323D2010F920293029B079933
:101C9000013BDBB2089A98000293049091420FDD59
:101CA0001AAB18580F990B9A401A50430A9902F030
:101CB00041F8049A17A98B58C0180E9BC01A0FE060
:101CC000049A17A988580E9B0A99C01A48430B9981
:101CD00002F030F804991AAA53580F9AC018801AC3
:101CE000C317C01858407F2812DC02998B0080214E
:101CF0000A1A039850214243D211C91804926A4625
:101D00008858049984460A1C6244503368461A5025
:101D100002990029BAD10136129B721E02929A4290
:101D200000DC52E7059E01371836059610987E1E96
:101D30000696864200DC43E7169B149E9E4200DD19
:101D40001E1C0799089A244F91420ADD900101F068
:101D5000F1FF3F2800DD3F203B5C2D21C81A0C9A83
:101D60000BE0079B0899980101F0E4FF3F2800DD94
:101D70003F203B5C2D210D9AC81A5043099A5343CA
:101D8000C01801F0D7FF7043159B8012834209DD14
:101D9000A54202DA231C2C1C1D1C201C291C1DAA78
:101DA000FFF774FC01350E2D00D084E6002C15D011
:101DB000251C013C7FE6C04668130020A2100020CD
:101DC000880600205805002075130020343F0000CD
:101DD000383F000000040040F43E0000014B1FB0FB
:101DE0001B68F0BD34000020F7B5012149420F22E5
:101DF0001C4802F03FF8FFF7BFFDFFF743FE1A4C07
:101E00000023261C2360743601931F1C1D1C002117
:101E1000725EFBB2002A1DDD226801322260114A87
:101E2000D5559D4214D00199AA000B195968A218E2
:101E3000281C51600E30DA6B8300C000E3182018B4
:101E40005A600430311C082201F0D6FF0023338091
:101E50000135EDB2019A01370432083601920E2F96
:101E6000D5D1F7BDA4070020880600204943404390
:101E700040187047F0B5944B85B01B78E020002BDC
:101E800001D0800200E04002904A914B118B1980F2
:101E9000528A5A808F4B0022191C94310A80191CD7
:101EA0009A310A80191C8C310A80191C92310A80DF
:101EB000191C84310A80191C8A310A80191C7C3152
:101EC0000A80191C82310A80191C74310A80191C7D
:101ED0007A310A80804A1168021C884200DD0A1C9F
:101EE00001211A6049420E227C4801F0C3FF7C4860
:101EF000FF21382201F0BEFF774B00241B680393BB
:101F0000784D2B5D002B3ED0774EA300F758774BD2
:101F1000E02062003F0140020126D3183F187642BC
:101F2000002502931FE02B1C0E336B49DA008A1840
:101F30000420125E002A14D0AA008A180299506860
:101F40008A889B00801A644A00B2D318029A5968A2
:101F5000138BC91A09B2FFF789FFB84201DA2E1CA8
:101F6000071C0135EDB2039B9D42DCDB751C0AD0DA
:101F70005A4B5B499857B200013002D08858B8429A
:101F800001DD8F509C550134052CB9D10023524AF4
:101F9000504934E0514EF05C44B201342DD09C00E5
:101FA000C0B2161987007668CD196E601D1C0E35FB
:101FB0000195AD00AC46061C94440E36654602976A
:101FC0000394B7006C68CF197C60019FF600FD0098
:101FD0008E1955190436043590CD90C61D1C383520
:101FE000AD00383055196D68800008184560039CB5
:101FF0003B48029D20583C4EA8510133DBB210688B
:102000008342C7DB0023344C324949E0334FFA5650
:10201000013243D11A1C0E32D200A2180420125EE3
:10202000002A3BD02F480022865CD5B2002E32D148
:10203000D600761874360027F65F002E2BD127487D
:102040009E00C55424489500861976684D196E6027
:102050001D1C0E350395204EAD00AC46101CB4443B
:102060000E30664675688700CF197D60039FC500F6
:102070001948FE0086194D190435043681CE81C5F4
:102080001D1C3835144EAD0038327019920040686E
:102090008A18506002E00132052AC5D10133DBB253
:1020A00022689342B2DB124B0C491C1C0E34FF20F9
:1020B0001A78042A02D88A5C1A7000E0187001337A
:1020C000A342F5D105B0F0BD45040020E003002097
:1020D000CC140020C402002088060020C107002084
:1020E000301300204C010020240100203C0C002073
:1020F000A4070020F0B52548254A26490523013BC1
:10210000DBB21D1C0E35EC0007190426BF5F002F43
:102110001CD014190426A45F002C17D09F00D419DA
:10212000C71964687F685E00E71B7F103C19AD002B
:102130008F19BC805419451964686D681F1C651B94
:102140000C376D107F002C19CC530EE09D005519F3
:102150006D685C000C19A5801D1C0E35AD001C1CA3
:1021600055190C346D6864000D531D1C084C0E3558
:10217000ED0065190426AD5F074E6F1EBD41F55495
:10218000002BBCD12268034B1A60F0BD98010020DF
:10219000C40200203C0C00204C01002008B50021A6
:1021A0000A220B4801F066FE0A4B0022191C9431EA
:1021B0000A80191C8C310A80191C84310A80191C70
:1021C0007C310A80191C74310A801A6008BDC0462F
:1021D000B8020020C4020020034B012252425A6080
:1021E00000221A609A6070471401002008B5FFF7BA
:1021F000D5FFFFF7F1FF08BD10B5314900220523D7
:10220000013BDBB2181C0E30C000081840890C1CC2
:10221000824200DA021C002BF2D12A494A6022686D
:10222000002A3DDD284B294AD9890BB25A2B05DDFE
:1022300027480078002801D1142003E01068002806
:1022400001D0013810601F48224A40685180108038
:102250001F4A117800290FD11F49097800290BD195
:102260003C2B09DC18491020095ED5204143891117
:102270008B4201DC012313701378002B12D0124A19
:102280000E21535E7D2B07DC1020125E64214A4331
:1022900005329211934205DD0D4B00221A7001E0C8
:1022A0000E4A13700A4B1B78002B01D0FFF776FF04
:1022B0000A4B1B78002B01D0FFF798FF10BDC046DA
:1022C000C402002074060020E00300204800002023
:1022D00030000020CC140020450400202001002004
:1022E00038B559435043D418651040184019211C83
:1022F00001F020FD38BDF0B5C54B8BB0DA89063A48
:1023000092B2242A1AD8C34A1278002A16D1197D0B
:10231000012913D815229A562C205043BE4B49B29E
:1023200018180E24005F1624624352185200C00091
:10233000D35E0530984201DBFFF730FFB749B84A5A
:102340000B1C5A331B785668B64C5E433425485FE5
:1023500022684F8EB61105230290013BDBB2191C97
:102360000E31C90061188888002824D0AE4D00B213
:10237000ED5C002D12D13DB2A84202DB4989B14289
:1023800019DA181CA7490E30C00008180021C180B6
:1023900041818180A5489D0029500BE0029DA84203
:1023A00009DA0020C8804881888099008C469F49BE
:1023B00065466850013A002BCFD19D49994D0A607E
:1023C0002B600524013CE4B2231C0E33DE0007968B
:1023D000AF19BA88002A00D192E0904E12B2B18EA5
:1023E000944E08B2121A52104900511889B2029143
:1023F00068460821085A904AB880115D367848B27C
:102400000396B04202DA013111554FE08B48A60025
:102410008A4982199B005068CA185268AE19019205
:102420002A687168EB1801322A605A6808930B1AFF
:102430000492DA179B1853409C46019A049B9B1AFE
:10244000DA179B18534063440593744B3A229B5E02
:102450001A1C0693059BFFF743FF04990990069AFF
:102460000198059BFFF73CFF099B74497360089E28
:10247000079A7060694E3C20365E01968E180423E0
:10248000F05E6A460823995E431ADA179B18534098
:10249000019AFFF725FFB88070897989019A431A5C
:1024A000DE179B197340FFF71BFF7881634A5D4B72
:1024B000A100501859184968261C0E364160B10019
:1024C000501859184968F600416091199E19B44690
:1024D0000427BC44029604316046C0C8C0C1211C18
:1024E000383189005B185B6852185360524B039E69
:1024F0001B57B34206DA0123029F5B42BB8001E017
:102500004D4E3255002C00D05CE746484B490568DB
:102510000A684B4B954227DA1A6801321A60002A82
:102520001DDD021C1C60943212880B1C94331A802F
:10253000021C8C3212880B1C8C331A80021C8432D1
:1025400012880B1C84331A80021C7C320B1C1288EC
:102550007C331A807430038874310B8005E08E223E
:10256000520001F049FC00E01C602E4B354C1A680B
:10257000324B00271A60344A01231578274A5B4200
:10258000111C27606360373109783E324E00039199
:10259000049612780193059202972FE0013DEDB267
:1025A0002E1D7600A15B002923D0039809B2091AD9
:1025B000049A4910511889B22448A153435D059AE1
:1025C000934204D2013343550023A35316E0204B1A
:1025D00009B2F05E0137431ADA179B1853401422F0
:1025E000FFF77EFE80B2A053029E00B2864203DB5C
:1025F00004E0164E715501E001950290002DCDD1F9
:102600002760019F124B67600BB023CC23C3F0BD42
:10261000E00300204A0400200A110020A21000203C
:1026200074060020C40200204C0100202401002078
:1026300068130020E0100020941000209801002072
:10264000B402002014010020380C00200D0C0020E2
:1026500008010020F8B5344D041C0A23EE5E03681F
:1026600069681801C31A5801C90101F063FB3618E3
:1026700026600823EF5EC820636829688000C901CE
:10268000584301F057FB2A693F1867602749964273
:1026900007DA0631CB7FB61A5E43B6119219226073
:1026A0000CE0F0235B009E1B964207DA0631C97FDF
:1026B000B61A4E43B61192199B1A2360EB681B4958
:1026C0009F4207DA0431CA7FFF1A5743BF11DB1953
:1026D00063600CE0C8229200D71B9F4207DA0531E5
:1026E000C97FFF1A4F43BF11DB19D21A62600F4A2C
:1026F0002168931CDB7F101C994206DD0A4A52694F
:10270000D51AA94202DB013AD31A2360C21C6168C0
:10271000D37F994206DD044A9269D01A814202DBD6
:10272000013AD31A6360F8BD180C00207E0C00201B
:10273000F0B5484E85B00524013CE4B2211C454A61
:102740000E31CB00D31804201B5E002B62DD201C51
:10275000414B1430400018180425405F002849DD23
:102760003E4B1A5D3E4B002A01D13F3300E040331F
:102770001F78A300F3185B6868460093231C0E3390
:102780009B00F3185B680193FFF764FF324D630011
:10279000EB1804201B5E02A80293231C0C335B0081
:1027A0005B5F0393FFF756FF029B009A291CD31A25
:1027B000D8171B184340BB4207DA019A039BD31A70
:1027C000DA179B185340BB4224DBA200B2185268B0
:1027D0006300CB189A80221C0E329200231CB21880
:1027E00052680C335B00EA521C4B1A5D002A11D16F
:1027F00001220EE0A500551960006D6818188900C7
:1028000085805218201C52680C304000C252134B75
:1028100000221A55201C0F4A0E30211CC0000E4BFE
:10282000143110184900808859188880002C83D1F1
:1028300011680C4A19600C4B1C1CE0CCE0C2012250
:10284000002902D11A68531E9A41084B05B01A702C
:10285000F0BDC046C402002058010020B80200208C
:10286000A2100020FC0000201401002055040020CC
:10287000EFF30880704700BA704740BA7047C0BA9B
:1028800070471F234209184001238340181C024B44
:102890009200D0507047C04600E100E01F2342097B
:1028A000184001238340181C2032024B9200D05064
:1028B0007047C04600E100E01F2342091840012391
:1028C0008340181C6032024B9200D0507047C046C3
:1028D00000E100E070B5002816DAC0B20F23034013
:1028E000083B134A9B089B009B1803221040904012
:1028F000FF225D68141C84408901A5430A40824080
:10290000281C1043586011E003248208094B204022
:10291000C032A0409200FF24D558261C8640890171
:10292000B5430C408440281C2043D05070BDC046A5
:1029300018ED00E000E100E08023DB051A6B1F21A9
:102940008A4315210A431A635A6B0F218A430E21C9
:102950000A435A637047074B3F2019688023DB0501
:1029600001390140044A586B090202400A435A6384
:102970007047C046100C0020FFC0FFFF8023DB051E
:10298000596B034A0A40802189000A435A63704701
:10299000FFC0FFFF8023DB055969082211435961FD
:1029A000D9689143D96070478023DB055A690821B3
:1029B0008A435A6170478023DB055A6908210A431C
:1029C0005A6170478023DB05586908231840434249
:1029D0005841704730B5A023DB051A6801208243B7
:1029E0001A601A6810218A431A601968204A8024E4
:1029F0000A40802109020A431A601A681D49E4004E
:102A00000A4022431A601C688022120614431C608C
:102A10001D68194C2C409025ED052C431C605C680A
:102A200020435860586801408020400001435960AD
:102A3000586812490140C02080020143596058681B
:102A40000F49014059605868802189050143596048
:102A50005868802149050143596019680A431A6082
:102A6000C0468022596852040A435A6030BDC046AD
:102A7000FF0FFFFFFFF8FFFFFFFFFF80FFFFF8FFE3
:102A8000FFFFFFFE38B5094B09495A78DC785143FE
:102A9000084B051CC918084801F04CF9064B291CC5
:102AA00001345843A14001F045F938BD6C0D0020B8
:102AB00044FEFFFFFE24020040420F00014B18704D
:102AC0007047C04602000020054B19688023DB05D3
:102AD000DA6B0902120E090A12060A43DA6370471A
:102AE00004000020014B18607047C046040000201D
:102AF000024B1878434258417047C04601000020FD
:102B000070B51349134B04241960134B134D1A6805
:102B100022431A601A680224A2431A601A68012428
:102B200022430F4C1A60002222600E4A11602E7858
:102B3000ED7870430135E840091A1160206811688A
:102B40008842FBD21A6801218A431A6070BDC046D0
:102B5000FFFFFF0014E000E010E000E06C0D00203B
:102B600018E000E068060020013043001818401803
:102B70007047F0B58DB003AC0091071C0021201CFC
:102B8000242201F077F90C25013DEDB2234A281CDF
:102B90000321565D01F0C4F80C23CCB25C4376B23D
:102BA00003AA6B1C301C03211419019301F0C2F815
:102BB000019A40B2800023898240101C18430123EF
:102BC000B3401E1C638820811E436680002DDBD12C
:102BD00003240C25009B013CE4B2002B08D02B1CE5
:102BE000634303AAD3180E4A0121D257914059607A
:102BF0002E1C664303AB9E197B1C211C7381381C61
:102C0000FFF7B2FF6843074A311C80180C2201F01D
:102C1000F3F8002CDED10DB0F0BDC046104D000021
:102C2000F84C0000000C0040F0B589B005AC0C2752
:102C3000061C3A1C201C002101F01CF9204A01212D
:102C4000515612781F4B52B29A5C595C1E4B0125AB
:102C50009B570091291C99400191301C002103923F
:102C6000FFF782FF6A46B9180290097800201056D3
:102C700049B22B1C2A1C8A4083401343019A0091BD
:102C800003216380626001F055F843B29B00022289
:102C90009A4000980321019201F04CF840B2800064
:102CA00085400298019B784308491D4301363A1C30
:102CB0004018211C2581668101F09EF809B0F0BD05
:102CC000204D0000104D0000F84C0000000C0040AA
:102CD00010B5012040420021FFF74BFF0024201CCB
:102CE00001210134FFF745FF142CF8D1201CFFF718
:102CF0009BFF10BD7047F0B589B000260090334BA4
:102D00006846049106968683DB7B171C5BB20293B0
:102D10002F4B351C1B78341C0393931E5A1E934172
:102D20005B420593E8B2012F06D12A4B0099029A23
:102D3000CB189C57A4180AE0002F06D1009B264907
:102D40005A1816236B43D45601E0059A1440049B8D
:102D50000399E418002901D0103408E0221C08323D
:102D600002DA0824644202E0072C00DD07240F2366
:102D700003211C4000F0D4FF184BC9B2490058573A
:102D80000191032100F0D6FF42B292000199231C69
:102D9000934006A81A1C0B5A01351343021C8B5290
:102DA00018360C2DBED10E4E0324013CE4B200981F
:102DB000211CFFF7D9FE63006843183369465B5A4C
:102DC000825B8353002CF0D109B0F0BDA21000202B
:102DD00098000020224D0000740D0020104D0000CE
:102DE000000C0040F0B587B02A4B01900491DB7BCA
:102DF000171C5BB20293284B00261B78341C0393EC
:102E0000931E5A1E93415B4202250593013DEDB28C
:102E1000012F08D118226A43019BD2181F4BD456A8
:102E2000029AA4180AE0002F06D116236B43019AD8
:102E30009B181B4A9C5601E0059B1C40049A039B6F
:102E4000A418002B01D0103408E0221C083202DA4A
:102E50000824644202E0072C00DD07240F231C40F5
:102E6000104B114A5B570321D05600F063FF43B269
:102E70009B00221C9A401643B6B2002DC6D1019881
:102E8000291CFFF771FE0C225043084B07B0C25AB1
:102E9000C652F0BDA210002098000020224D000074
:102EA000740D0020204D0000104D0000000C00406B
:102EB00070B5274A8023DB05147C9D6807212548CF
:102EC0000C4024032840204398609C6822482040FE
:102ED0009860947A03209D68044020482404284088
:102EE00020439860547A3F209D6804401C48A40405
:102EF000284020439860107A9C68014008061949D0
:102F000021400143996098688021090501431648D2
:102F100099600488191C38310C7085789E6B7F216C
:102F2000124C0D4034402D022C439C6304799D6B60
:102F30000F480C4028402404204398639279986BF2
:102F400011400A060B4901401143996370BDC04608
:102F5000A2100020FF8FFFFFFF7FFFFFFFFFFCFF9E
:102F6000FFFF03FFFFFFFFF86C060020FF80FFFF5D
:102F7000FFFF80FFFFFFFF8070B58023DB055968EE
:102F80004D4A0A405A6004225A625A61C046C046FD
:102F9000D969114201D04D2103E0D969114202D112
:102FA0004621464A117000223F205A629A62DA6036
:102FB0001A6158619A61424A01245078802118713F
:102FC000D0785D6804403F48A407284020435860FB
:102FD000107903245D6804403B48240728402043BF
:102FE000586055790F205E68384C05402D043440F8
:102FF0002C435C609579364C5E6805402D06344064
:103000002C435C60D2795C68104002053148C905E8
:10301000204010435860304B8A681B7D002B03D042
:1030200080231B01134301E02C4B134080248B6051
:10303000E405FFF73DFF236B602293432363236B7B
:103040008022134323630025FFF776FCFFF7C2FCC1
:10305000FFF73EFE281C65700221FFF73BFC291C90
:103060000120FFF737FC02200121FFF733FC03208A
:10307000011CFFF72FFC04200321FFF72BFC02218A
:103080000520FFF727FC281CFFF7FBFB0120FFF7BB
:10309000F8FB0220FFF7F5FB0320FFF7F2FB04200B
:1030A000FFF7EFFB0E4B04215D600E4B1A690A43DC
:1030B0001A6162B670BDC046FFFEFFFF3E000020F1
:1030C0006C0D0020FFFFFFBFFFFFFFCFFFFFF0FFF2
:1030D000FFFFFFF0FFFF0FFF7E0C0020FFF7FFFF59
:1030E000FCE100E000ED00E000B58021C9050B79AE
:1030F0005A1E984209DD01E0DAB20A7101338342B7
:10310000FADD04E0D3B20B71013A8242FADA00BD73
:1031100008B50C4A0C4B0D4901E001CA01C38B42B2
:10312000FBD30B4B0B49002200E004C38B42FCD3C2
:10313000FFF79EFB084B002200E004C38342FCD350
:1031400008BDC0463C3F00000000002044000020B5
:1031500044000020441500200C160020F7B52D4B2C
:1031600000241C702C4B211C5C6030222B4800F08A
:1031700081FE2B4B2B4A1C70012313702A4A201C02
:1031800013702A4BD9790C23013BDBB2284D5C1C10
:10319000162762005F43565B264D5A000E41565378
:1031A000019713229C46013AD2B2531C1B01204DB9
:1031B0001B195B00EF5A931C1B011B195B00EB5A98
:1031C0000F410B41FF18019B7F109D181A4BAD005A
:1031D000EF50F71BC019002AE5D16346002BD3D16D
:1031E000124B164DDE8D002E02D140232B600BE0DA
:1031F000E42100F09FFDB601011C301C00F09AFD97
:103200006E2800DD6E2028600D4B00221A605A6087
:10321000F7BDC046BA070020F00B002010150020B3
:103220002C130020160C002072130020A210002086
:1032300000080040F8140020D0070020340C0020C3
:103240007C060020044A00231370044A1370044AC9
:103250001370044A137070477C0C00200C0C002083
:103260007013002074130020F0B5C84BA1B01A7879
:10327000002A00D0A1E2C64BC64918780C7801306C
:10328000013406013619C44D7600E4B2765B0C7049
:103290000B2C05D90A70C1B21970132900D91A7004
:1032A000BE4B0022BE48BF499A605A611A62DA6278
:1032B0005A601A61DA619A621A60DA609A615A6237
:1032C000FF23026043608260C360B7484A600A60BF
:1032D0008A83CA824A834A82CA818A608A81C4797F
:1032E00018270C940C9DB14C2C4117944678151C52
:1032F0001896AF4C24681994AE4C24781A94041C88
:10330000393424781B94AC4C24781C94C7571C2463
:10331000149704571D94407E049240B216900F9269
:103320000E7D1396497D1092159109930E920B9381
:103330000D920592129211920A920C2111E1079CB2
:10334000671C1E9D07972B19079D00275F764E1C53
:103350002B01914F9B195B00FD5AA31C1B019B196C
:103360005B00FB5A0C9F9C460C9B1D4163463B41F6
:10337000EF18179B7F10DF1BFB43189DDB171F40C7
:10338000002D07D01F9B8D4D5D192B5D199D5F434F
:103390006F433F1358239C461A9B894D002B11D134
:1033A00064464C432E193458E51B14B2AC4200DA83
:1033B000AAB26B461024E35EAB4201DDADB20495C8
:1033C0003750C5E063464B439C4665442B58019DEE
:1033D0005B119C460023ED5E06956546EB1B1B9D2D
:1033E000002D0AD07B00DB19069D039367467B1BEB
:1033F000039F6546FB189B10EB1A1C9F002F05D0FE
:10340000069DEF18019D7F102F8001E0019D2B800C
:10341000019D6F462D8806951825EF5FBC460A9FD3
:103420003D1C654417B20A95674502DA6F461825B8
:10343000EA5B6F461025ED5B92B23D822FB26D467E
:103440001835BC460027EF5FBC4503DD6F461825E5
:10345000ED5B3D826F463F8A0497002B3BDB132BCD
:1034600003DD119DEF18BFB21197149FBB4203DB20
:10347000029DDF1BED1902956D463C350027EF5F7D
:10348000BB4205DD9FB20F97E5B2CFB213951597FA
:103490001D9DAB420FDB109F8F4200DA1091099DFA
:1034A0008D4200DD09910E9FA74200DA0E940B9D1C
:1034B000A54200DD0B94079D9FB22D01AC46B4449C
:1034C0006646069776006F461825B446EE5B324F87
:1034D00065467E5317E00D9F169DFF1A0D97AB4270
:1034E00003DC5F1B059DED19059512AD0027EF5F0D
:1034F000BB4201DC9FB21297079D2F01BF19264ED8
:103500007F000025F553E4B2022C21D80A2B0EDDF2
:10351000224E1F1C341C243405590A3FAC46674414
:103520000751341C0C3407599F4211DA0FE01E1C5E
:103530000A360DDA234D1F1C46590A37B446174C7C
:10354000204E06976744875107599F4200DD03517B
:10355000019B079C023304300193132C00D0EEE64C
:10356000029D0139C9B2FF2932D02C264E43164F95
:10357000164BF61918274F43FB181E9316234B437F
:103580000020041C1F9302950196D9E67C0C0020B4
:103590000D0400200C0400200008004068000020FA
:1035A0001C130020E0030020A2100020FFFF0000F9
:1035B000340C0020BA07002045040020724E0000A1
:1035C000D0070020800000200A1100207513002081
:1035D0007B4C102162833C2368466A46085A9A5AFB
:1035E00011A913AB1B780988A083A1810998E281F6
:1035F0002375109F734B0E990B9A15AED8609F6080
:10360000196036785A600D9B12AF6675A360059EEF
:103610006D4B3F880020195E25606660E7820A983E
:1036200000F088FB694BE0831B78002B1AD0684BB5
:103630001B78002B19D11A1C002D0DDDB101494258
:103640008911C739A94207DC64214942714301222B
:1036500089118D4200DB1A1CD2B2002A02D05D4BC8
:1036600001221A700C23002208E000239D4202DD93
:10367000059C2D19EB0F574A1370F3E7013B564D8C
:10368000DBB25919554E49007252002BF6D1544AFB
:103690001278544A1278002A00D08EE0524A1478E8
:1036A000524A211CD779101C079756300026855F97
:1036B000101C089558300025475F4D4D09975678E6
:1036C00067000696927E7D190A924A4A181C126873
:1036D0000D950B923E4A0F9412780C92464A12783E
:1036E0000592464A12780492454A12784BE0454CBE
:1036F0004D1E6457261C013636017118374E49009D
:10370000715A0D9C8C46E11802390C88079966465F
:103710000E413349B6B20978A61B002909D1089C8D
:10372000A64202DC09998E4203DA0122101C04929F
:103730000592069CB6B2002C04D03349495D4E4335
:10374000B611B6B20F9989008C4630498C445900A5
:103750006144043909684911891B89B20A9E0CB277
:10376000B44200DB01200B9C002C05DD0C9C664262
:1037700066410E9676423140254EBE19F618023E3D
:103780003180023B291C0029B1D114266D461A4B09
:10379000755D10276E461D70BE5D184B1E70114B77
:1037A0001870174B1A700B1CA82701317F00CA191B
:1037B0000A48520083520C29F6D121B0F0BDC04610
:1037C000E00300201C130020140C0020BA07002086
:1037D00045040020010400204101000000080040D1
:1037E0003300002070130020380C0020A2100020AD
:1037F000F814002098010020741300200C0C002005
:103800002C0400201E4D00007A4F00007C06002092
:103810009E100020F7B50F4B0F4A104FD9790C239B
:10382000013BDBB25C1C6400145B451C07D15E00ED
:1038300001960C41261C0A4D019C665307E0A446E4
:1038400016245C4365462418A4000D41E551002B65
:10385000E6D1F7BDA210002000080040D0070020EC
:10386000F8140020F7B51D4B0025DE798C460C239B
:10387000013BDBB2411C03D1194A5900895A05E0CA
:1038800016215943174C09188900615A5C1C164AC5
:103890006400A75A3741C91BCF17C91979406D1861
:1038A000411C0DD1A15A5A003141019200916F463D
:1038B0003A880B49019F7A520B4F0021E15308E0EF
:1038C0000949675A16245C4306492418A400374165
:1038D0006750002BCCD161460D60F7BDA2100020CF
:1038E000F8140020D007002000080040F7B5804BF6
:1038F0001B78002B2BD07F4B7F4E18787F4B44B228
:1039000019685B68A200CB189351411C0023271C47
:10391000C9B21A1C0C37A51A00D5BD1AAD00AD5995
:103920005B190D1C0B2901D90C3DEDB2AD00755989
:10393000013101325B1BC9B2062AECD101306D4A5C
:10394000C0B2107040B20B2801DD002111706C4A2A
:103950001278002A00D0CAE06A4A1420115E8B4215
:1039600002DA694B0121197064491A23C85E1C24CC
:103970000B5F917DC31A8B4206DC644B1A7851B2FF
:103980000132022905DD05E0D27D934202DB5F4B67
:1039900000221A705C49564B0A78002A43D05B4AD1
:1039A0001278002A04D1187800283CD00A703AE036
:1039B000032A38D11C780C21554A1AE016254D43AC
:1039C0001323013BDBB2002C08D1EE18B700D0590D
:1039D00076004001D0514F4FBC5308E0EF184D48DE
:1039E000BE007F00C75F90597F01C71B9751002B16
:1039F000E7D10139E2D23E4A00231178994205D13C
:103A00000123137008E05818026301E03A491A1CB8
:103A1000043B1C1C3434F6D13B4B00221A703E4B45
:103A200001221A7063E01A783C4B002A06D13A4A08
:103A3000012111701A6852181A6058E000221A60A9
:103A4000374B334A1F782D4B1E269B5FD9175818CA
:103A5000484001900C2120E016254D431323013BE3
:103A6000DBB2002F08D0EE18B0007400294E345F8E
:103A70001658341B14500EE0E818264C86004000FF
:103A8000205A04B2072C00DD0720019C00B2A040A0
:103A90009459201A9051002BE1D10139C9B2FF2964
:103AA000DAD1184BDC7E1E4B1B78002B01D164B29F
:103AB00000E01C4C1C4B1B78002B18D11B4B1C4AE4
:103AC0001B781C4811E0013BDBB29D00A95800297E
:103AD00003D05E00865FA64204DA5E00865F9D002A
:103AE000760100E07600891BA950002BEBD1F7BDD1
:103AF000BA0700202C13002010150020E00300203E
:103B00000C0C0020A210002072130020160C0020C4
:103B1000D00700200A110020741300202404002084
:103B200045040020D4FEFFFF70130020380C002055
:103B30007C0600209E10002010B50B495C220B482B
:103B400000F05AF90A4C3822201C0A4900F054F9B6
:103B5000094BA27B1A608023DB051B7A122B02D053
:103B6000064B01221A7010BD404C0000A21000202C
:103B70007E0C0020084C0000C81400209800002093
:103B800008B50449044B41430448C91800F0D2F871
:103B9000C0B208BD44FEFFFFFE24020040420F00F9
:103BA00010B50D4C0023E37002232371E3710B4B1E
:103BB0009B78042B0FD1D020A070FFF7E1FF084BBA
:103BC00020701B78002B01D00A2300E00C236371C6
:103BD000014B02229A7110BD6C0D0020A210002032
:103BE0009800002038B5124C124D2378FA209A0024
:103BF000D3189B10DBB22B802378800058430E4BE8
:103C00009988C90000F096F8C1B269802378232012
:103C10005843C90000F08EF8084B02221A70084B76
:103C2000E4221A80074BC0B24022A8801A6038BD37
:103C30006C0D00206C060020A2100020380C002023
:103C4000140C0020100C0020704710B51C1C029BA7
:103C500088420ADB904207DA1B1B401A5843511A6C
:103C600000F068F8241800E01C1C201C10BDC046A1
:103C700002B4714649084900095C49008E4402BCFF
:103C80007047C04603B47146490840004900095ACC
:103C900049008E4403BC7047002934D00123002220
:103CA00010B488422CD301242407A14204D28142BB
:103CB00002D209011B01F8E7E400A14204D28142CB
:103CC00002D249005B00F8E7884201D3401A1A4348
:103CD0004C08A04202D3001B5C0822438C08A0427F
:103CE00002D3001B9C082243CC08A04202D3001B35
:103CF000DC082243002803D01B0901D00909E3E7AF
:103D0000101C10BC7047002801D00020C04307B42D
:103D1000024802A14018029003BDC046D90000002D
:103D20000029F0D003B5FFF7B9FF0EBC4243891A52
:103D30001847C046002941D010B4041C4C40A4468A
:103D400001230022002900D54942002800D5404225
:103D500088422CD301242407A14204D2814202D2FA
:103D600009011B01F8E7E400A14204D2814202D21A
:103D700049005B00F8E7884201D3401A1A434C0817
:103D8000A04202D3001B5C0822438C08A04202D34D
:103D9000001B9C082243CC08A04202D3001BDC0875
:103DA0002243002803D01B0901D00909E3E7101CB6
:103DB0006446002C00D5404210BC7047002806D055
:103DC00003DB0020C043400801E08020000607B468
:103DD000024802A14018029003BDC046190000002D
:103DE0000029EBD003B5FFF7A7FF0EBC4243891AA9
:103DF0001847C0467047C046F0B5051C0F2A2FD99A
:103E00000B1C0343051C9C072CD10C1C031C151C0C
:103E10002668103D1E6066685E60A6689E60E66863
:103E20001034DE6010330F2DF2D8131C103B1B0929
:103E300001331B01C518C9180F231A40032A0FD9D3
:103E40000E1C2C1C131C80CE043B80C4032BFAD800
:103E5000131F9B0801339B0003242240C918ED184F
:103E6000002A05D00023CC5CEC5401339342FAD1F4
:103E7000F0BDC04670B5830742D0002A3FD0013A5A
:103E8000CEB2031C032503E0541E002A37D0221CA7
:103E90001E7001332B42F7D1032A28D9FF250D408C
:103EA0002C0225432C0425430F2A13D91C1C161C55
:103EB000103E25606560A560E56010340F2EF7D8D0
:103EC000141C103C2409013424011B190F24224026
:103ED000032A0CD91E1C141C043C20C6032CFBD83E
:103EE000141FA4080134A40003252A401B19002A2A
:103EF00005D0C9B2013A19700133002AFAD170BD58
:103F0000031CC9E700010203040405060708090AA7
:103F10000B0B0C0D0E0F1011111213141515161793
:103F20001818191A1B1B1C1D1D1E1F1F20212122C2
:103F3000232324242525262727282829292A2A2B14
:103F40002B2C2C2DFF00000100FF010000000000C1
:103F50000000000000000000000000000000000061
:103F60000000000000000000000000000000000051
:103F700000000000FF000000B60C002001FF02015D
:103F80000104000444000C06040341000100000089
:103F9000FFFFFFFFFFFFFFFFFFFFFFFFFFFFFFFF31
:103FA000FFFFFFFFFFFFFFFFFFFFFFFFFFFFFFFF21
:103FB000FFFFFFFFFFFFFFFFFFFFFFFFFFFFFFFF11
:103FC000FFFFFFFFFFFFFFFFFFFFFFFFFFFFFFFF01
:103FD000FFFFFFFFFFFFFFFFFFFFFFFFFFFFFFFFF1
:103FE000FFFFFFFFFFFFFFFFFFFFFFFFFFFFFFFFE1
:103FF000FFFFFFFFFFFFFFFFFFFFFFFFFFFFFFFFD1
:10400000FFFFFFFFFFFFFFFFFFFFFFFFFFFFFF447B
:104010004D3148305052343400B5002802D00128C8
:1040200015D102E00A4A0B4B10E00B4A0B4B1A6009
:104030000B4A0C4B1A600C4A0C4B1A600C4A0D4B85
:104040001A600D4A0D4B1A600D4A0E4B1A6000BDE6
:10405000DD40000064060020614300006400002091
:104060004D46000060000020A94600001800002016
:10407000AD4A000014000020A14300001000002001
:10408000794000000C00002008B5124B1B88DBB201
:10409000AF2B1BD0B22B19D0102B19D1FEF78BFCF4
:1040A0000D4A002313600D4A11680D4A12689142AF
:1040B00002D108E0C04600E00A4B013B002BF9D1D9
:1040C000FEF772FC04E0084A136001E0FEF773FC9F
:1040D00008BDC0461C00002020000020A0000020D9
:1040E0009C000020E903000000110020F7B5013812
:1040F000122800D905E1FFF7C5FD13001C000401DB
:10410000040104010401200004010401040104016C
:104110000401A5000401E000040104019000F30083
:10412000784B1A78784B1A70784B9A78784B1A70CB
:10413000E7E07848FEF7E4FCE3E0774C0E20235EEE
:10414000282B04DD283BDB100C33019308E006200C
:104150004343181C48381C21FFF7ECFD0630019042
:10416000002626820C25341C2FE0002013236F1C10
:10417000013BDBB25A1C1201D21968495200525A53
:104180008018002BF4D11321FFF7D4FD13238446AC
:10419000013BDBB2591C0A016048D2195200825A15
:1041A0000198824201DD0136B6B26046121A94428D
:1041B00000DA141CD043C01709010240C91957483E
:1041C00092B249004252002BE2D1013DEDB2FF2DE7
:1041D000CBD1534B504A1B7816825482002B0FD000
:1041E000504BE0179B7ED90F9C4248414E49C4B2C8
:1041F0000870002C04D11C20125ED318DB0F0B704A
:10420000494B1B78002B7CD0484B1B78012B78D175
:10421000474B5A6801325A6073E0454B5A682D2A61
:104220006FDD444A1278002A6BD1434A1478221E6B
:1042300067D15A60FDF7DAFF404B10221A703B4BF2
:104240001C705EE03B4B1B78002B31D13C49502069
:104250000B68012B25D13B4A1368012B21D1C86B78
:10426000D36B4968C01AC317C01858405368CB1A9B
:10427000D9175B184B40C3181BB21D2B0BDD312B1C
:104280000BDD3B2B0BDDC8204F2B0ADD5020632BB1
:1042900007DC642005E0FA2002E0C82000E0962058
:1042A0004000C0012821FFF745FD1E4B588728E03C
:1042B000F0221C4BD2005A8723E0234B1B78002BA3
:1042C0001FD0224B1B68002B03DD214B1B68002BEA
:1042D00003D0204B1B78002B13D0FDF77DFF10E09F
:1042E000104B872252009A8018229A710422DA71A8
:1042F00001221A723C225A7200221A70164B9A78C6
:104300005A70F7BDFF4B0000600600207E0C0020B5
:1043100061060020204E0000E00300200004004061
:10432000BA070020A21000200C0C0020520400202C
:10433000F00B0020450400204A040020C0070020A4
:10434000C4020020980100205304002058010020DE
:10435000FC000020200100206C0D0020024B1A6898
:10436000024B1A607047C0469C000020A00000204D
:1043700008B5FFF7F3FF08BD10B50A4C0622216807
:10438000094B51431B6809485918FFF735FD23684D
:104390000133236023681D2B02DD23681E3B23604D
:1043A00010BDC046A00000202C00002004110020F9
:1043B00073B5884A1388111C1BB20F2B4ED024DC16
:1043C000072B00D1A1E00EDC032B00D1C7E003DCFA
:1043D000022B00D0FCE0BFE0042B00D1C6E0052B8F
:1043E00000D0F5E0B1E00B2B00D1C6E006DC082BD5
:1043F00000D195E00A2B00D0EAE09FE00C2B00D121
:10440000C1E00D2B00D0E3E0C4E0B12B1DD00DDCEA
:104410001F2B77D003DC102B00D0D9E044E0AE2B6B
:1044200000D1C1E0AF2B00D0D2E0C4E0C12B57D007
:1044300005DCB22B0DD0C02B00D0C9E04AE0C22B66
:1044400056D0E32B00D0C3E059E0634A1178634AA9
:104450001170634A1178B222D31A7BE000F0C2FDDA
:10446000604C20602368002B01D1FEF7A4FA23687A
:1044700006225A43594B5C4C1A700025594E0FE0E6
:10448000FFF77AFF684659490622FFF7B5FC00237B
:1044900069465A5CE2540133062BF9D101350634E2
:1044A00033689D42ECDB93E051494E4A0C68136837
:1044B00006205843002384420ADA4B4A0868474DD5
:1044C0001018C45C581901330470082BF6D17FE032
:1044D00013607DE012884D2112B29B1A3F4A995415
:1044E0003C4B45211A88C12312B29A1A3B4BD15436
:1044F000384B0A211A88C22312B29A1A51E0128844
:104500003C491EE012883C491BE0128812B29B1AFB
:104510003A4A128811B2C943C9170A402F495A545E
:104520002C4B1988082309B2591A344B5B881AB2EC
:10453000D243D2171340294A8B5449E0304912889C
:10454000363112B209789B1A04E0128812B29B1A13
:104550002B4A518E214A25E0204B31221A700A88BD
:10456000032312B29A1A1D4BE021D154194B20217A
:104570001A88042312B29A1A13E01288142112B274
:104580009B1A164A9954134B144A19880C2309B2E2
:10459000591A8B540F4B1A881A4B12B219780D23E3
:1045A0009A1A0E4BD15413E0174B1A780B4B1A7012
:1045B000FEF701FA0CE015490D4A00230C6810685B
:1045C000064D2018C45C581901330470082BF5D12E
:1045D00073BDC0461C00002047040020100000509E
:1045E0004604002000110020A40000200411002037
:1045F000200000207E0C00203E0000209E100020A5
:10460000A2100020380C0020CF0700207C0E0020D4
:1046100073B50F4C0F4D0090019120681E211F3083
:104620002E68FFF7DDFBB142F7D020680622504329
:10463000094B69461B681818FFF7DEFB2368013336
:10464000236023681D2B02DD23681E3B236073BD9E
:104650009C000020A00000202C00002007B50128AD
:1046600002D0022811D109E06A460F2313700023FB
:1046700053709370D3701371537106E06A460E2322
:104680001370002353709370D37000980199FFF753
:10469000BFFFFEF789F907BD07B506235A4301910D
:1046A000044900900868694680181A1CFFF7A4FBAB
:1046B00007BDC0462C000020F0B59D4B8BB01A788A
:1046C000002A04D19B4B1978002900D01A700027CA
:1046D0000125994E01953C1C98483D1804216B5EBC
:1046E00006A806931822AB5E0793FDF7B3FF0020E0
:1046F000335E002B75DD924BA200D3185A68DB6B3A
:1047000004A804920593FDF7A5FF0598079B069A58
:10471000C31A04990292DA1700919918894B5140F3
:104720001B780391012B1AD1C8235B00984208DD46
:10473000854B984213DC9138FF386223584364213B
:1047400008E098420BD0642809DD181A6223584308
:1047500064214942FFF7EEFA9130FF3005907B4B20
:10476000039840331B78984207DA009902980A1A96
:10477000D11752184A409A4203DB754B1B5D002B40
:1047800003D12C22AB5E002B68DC019D60225242DB
:1047900008AB2A4304991A70059A0D1212110F21C1
:1047A0008A430D40154310215D706D464D5D142206
:1047B0006946515CE0B2D970F1889D70FF22FE29F4
:1047C00000D8CAB21A71328811B2FF2900DDFF2267
:1047D0005A7100F0DBFB021C09990898531C3BD16D
:1047E00035E02C202B5E002B38DD0799019D0291CE
:1047F0002022069908AB2A431A700F250A122A4074
:104800000092029A99701211AA43151C009A08216D
:104810001543474A5D706D464D5D1278E0B2DD701C
:10482000002A08D0434A1178002904D10E211971B9
:104830000123137001E000221A71002308AD6B718F
:1048400000F0A4FB021C501C04D108986968FFF713
:10485000DFFE03E008986968FFF71EFF019D02373D
:1048600001350134019508360A2F00D034E7394B61
:104870005A68394B5B68501C35D09A424ED0591C4F
:1048800017D04022013308AC134323700023637018
:10489000A370E37023716371052000F077FB021CA5
:1048A00061680898531C02D1FFF7B2FE01E0FFF7E0
:1048B000F3FE284A402351685B42481C08AC03437E
:1048C00023700431002349006370A370E3702371E7
:1048D000535A0520637100F059FB021C6168089867
:1048E000551C19D114E0581C18D04022013308ACD3
:1048F0001343237000236370A370E370237163710B
:10490000052000F043FB021C0898511C03D161688C
:10491000FFF77EFE02E06168FFF7BEFE0F4B1A68EC
:104920000F4B1B689A4201D0FEF73EF80BB0F0BD6A
:10493000450400205C0000203803002058010020BE
:10494000C40200204A040020BB020000A210002084
:10495000B802002014010020FC000020A00000206C
:104960009C00002070B5051C0E1C141C502805D19D
:10497000454B01201860FFF74FFB83E0402806D12C
:10498000424B00221A73424B01221A700CE04D2850
:104990000AD1404B26221A702C224A433E4BD21891
:1049A0003E4B1A60FEF700F8394B1A78002A69D09E
:1049B000281C41380E2865D8FFF75AF90810081F3F
:1049C000082E6464643C4B5164646200314B0122E4
:1049D0001A70334B1A80314A13604EE02D4BFF2C76
:1049E00003D128221A70002401E002221A70162333
:1049F0005E43A41964002B4B3CE0264BFF2C03D1F3
:104A000028221A70002401E002221A7016235E4345
:104A1000A4196400204B2DE01E4BFF2C03D114225F
:104A20001A70002401E001221A7016235E431E4B07
:104A3000A4191FE0174BFF2C06D11C4A0024127842
:104A40005200D2B21A7001E002221A706400184BB0
:104A500010E0104B02221A709440164B0AE00D4BE6
:104A6000FF2C04D1114A002412781A7001E00122AF
:104A70001A70114BE418094B1C60FDF795FF01E01B
:104A800000221A7070BDC046C8140020A210002079
:104A90004E040020CF0700200A1100207C0E0020C9
:104AA000B4070020840E0020740D0020380C002074
:104AB0009E1000207C0600206A0D002008B53D4BAA
:104AC0001B88302B71D004D80E2B2AD01E2B70D10E
:104AD00062E0A02B04D0B02B41D05F2B69D108E05D
:104AE000354B1878354B1978354B1A78FFF73AFF64
:104AF0005FE0A023DB051968324A0A408021C90122
:104B00000A431A601968304A0A408021C9000A43E2
:104B10001A6019682D4A0A409021C9050A431A6093
:104B200047E02B4B01221A702A4B192159860A2182
:104B30009986191C413115200870191C3E3103203B
:104B4000087008211977244B1A70244B4022191D34
:104B5000CA77591DCA7706332D22DA7729E0164B1A
:104B60001B78002B25D08023DB0599681C4A0A405E
:104B70009A6099681B4A0A409A6099681A4A0A40E2
:104B80009A605968802212010A435A60C046C046A2
:104B9000C046C04662B60CE0074B1A78134B002A99
:104BA00001D0002204E0012202E0034B1A78104BEE
:104BB0001A7008BD1C0000200C0000500E000050B0
:104BC0000D000050FF0FFFFFFFF8FFFFFFFFFF800A
:104BD00048040020A21000204A0400207E0C00207F
:104BE000FFFDFFFFFFFBFFFFFFF7FFFF330000208C
:104BF00032000020FFFFFFFFFFFFFFFFFFFFFFFF6F
:104C0000FFFFFFFFFFFFFFFFFFFFFFFFFFFFFF545F
:104C10004D314830504234345645564B594C455F1F
:104C200047314D0000480C3C1E14010101010005F4
:104C300000012003E001000000020232322B0101DA
:104C4000690070008403401F14000C02323210000F
:104C5000010104000E012403051E00FD040F0F00D6
:104C6000040A07009CFF14190AF60FF60A008803CD
:104C7000200398032C01DC0096003C002256000023
:104C80000000320014001E145A0100052D0001011D
:104C900001201E003E003E000A0101070A005A00E2
:104CA0000A03941128005203C800140000010400F4
:104CB0000E012404051E00FD040F0F00040F050063
:104CC0007CFC14190AF60FF60F00320014003200B3
:104CD00014000A00140030002256000000004600B4
:104CE0003C00140F5A0140062D00020101143E0041
:104CF0003E003E000A0101070A0078000A0AA406E5
:104D00003C005203C80020000F01110213031204DB
:104D100010050A0E090D0814070C06150B000000FB
:104D2000000102030405060708090A0B0000141419
:104D30000209FDFEFDFDFCFDFCFDFCFDFBFDFBFD98
:104D4000FAFDFBFDFBFDF8000000FDFDFDFDFCFC98
:104D5000FCFCFCFCFCFBFBFBFBFBFBFBFCFCF8009A
:104D60000000FDFDFDFDFCFCFCFCFCFCFBFBFBFB7B
:104D7000FBFBFBFBFBFBF8000000FDFDFDFDFCFC6D
:104D8000FCFCFCFCFBFCFBFBFBFBFBFBFCFCF90069
:104D90000000FDFDFDFDFCFCFCFCFCFCFBFBFBFB4B
:104DA000FBFBFBFBFCFCF9000000FDFDFDFDFCFC3A
:104DB000FCFCFCFCFBFCFBFBFBFBFBFBFCFCF90039
:104DC0000000FDFDFDFDFCFCFCFCFCFCFBFBFBFB1B
:104DD000FBFBFBFBFCFCF9000000FDFDFDFDFCFC0A
:104DE000FCFCFCFCFBFCFBFBFBFBFBFBFCFCF8000A
:104DF0000000FDFDFDFDFCFCFCFCFCFCFBFBFBFBEB
:104E0000FBFBFBFBFCFCF8000000FDFDFDFDFCFCDA
:104E1000FCFCFCFCFBFBFBFBFBFBFBFBFBFBF900DB
:104E20000000FDFDFDFDFCFCFCFCFCFCFBFCFBFBB9
:104E3000FBFBFBFBFCFCF9000000FEFDFEFCFDFBA8
:104E4000FDFBFDFBFDFBFDFBFDFBFDFBFDFBF800A2
:104E50000000000000000000000000000000000052
:104E60000000000000000000000000000000000042
:104E70000000000000000000000000000000000032
:104E8000000061544E484A4E4C45435553575D52BD
:104E900051595A60620000003A35312E29282827DE
:104EA000252624252A282B2B2C28350000003D37C9
:104EB00032312C2B30282A2727282E2F302E322E25
:104EC000320000003B3E332E2C29292B25262A2A8E
:104ED00031303333312C390000003C37332F2C2B49
:104EE0002C2A2A282427292F35332E313D00000073
:104EF0003C3C342C302A2C2D2725272B2C2E3333C9
:104F00002D2E380000003D3A33302C2B2B2827273C
:104F100025272C3036342E29370000003B36322F1F
:104F20002D2A302B292526272A2B312E2B2D3A00EE
:104F300000003D3A352C2A2D2B2B2626252A292FF9
:104F400033322C2A350000004037332E2F293229E6
:104F5000292628292F2E2E30312D370000003C34F1
:104F6000302B2A2728272625252728292C2C2E28B0
:104F7000360000005758484D48494447494B4A4B72
:104F80005B5859595E6163000000232370B5114BD3
:104F9000114A1C6811688C4218D01B6816680F4AA9
:104FA000DBB21568F6B206240F210130221C5A43E9
:104FB000AA1812780A40824209D05A1CD2B21D3B6C
:104FC000DBB21D2A00D8131CB342EFD1044B18B238
:104FD00070BDC046A00000209C0000202C000020D6
:104FE000FFFF000000B5074A074B106819688842A8
:104FF00002DB10681B6802E010681B681E30C01AD4
:1050000000BDC0469C000020A0000020FFFFFF0064
:00000001FF
