:1000000010000000005000004D450F0201000000EC
:10001000001800201D030000DD020000E1020000C6
:10002000E5020000E9020000ED020000000000000F
:10003000000000000000000000000000F1020000CD
:10004000F502000000000000F9020000FD020000BF
:10005000D50000009D01000021010000C10000004A
:10006000D90100000102000019030000190300007B
:100070001903000019030000190300001903000010
:100080001903000019030000190300001903000000
:1000900019030000190300001903000019030000F0
:1000A00019030000190300001903000019030000E0
:1000B00019030000190300001903000019030000D0
:1000C00019030000190300001903000019030000C0
:1000D000034A002313708022D20513707047C04674
:1000E0000000002000B50F4A002353708023DB0579
:1000F000D86B0D490140D963D86B0C490140D963D5
:10010000917800290CD05168DA6B0902120E090AA5
:1001100012060A43DA63D96B802252040A43DA6377
:1001200000BDC04600000020FFFFFFFEFFFFFFEF05
:1001300010B5A022D20594686407640FE3B2022BC5
:100140000AD0042B14D0012B16D1144B00211960B6
:10015000127B134B1A800FE0124B1B7A022B03D138
:100160000E4B1A6808321A600F4B1B68984703E061
:100170000A4B1A6808321A600A4B01211C72A0232C
:10018000DB051A680A431A60C046C046C046C0462E
:100190001A6810210A431A6010BDC04620000020D2
:1001A0001C000020000000201000002010B5A0233B
:1001B000DB051A6801210A431A601A6810210A43F4
:1001C0001A60064B1B689847054C237A022B02D114
:1001D000044B1B6898470023237210BD14000020B5
:1001E000000000200C000020064B00225A728023E1
:1001F000DB051968044A0A401A601968034A0A4074
:100200001A60704700000020FFFFF0FFFFFF0FFFA4
:100210007047C0467047064B01221A708023DB05E9
:100220000021597019680F2081430A431A607047F2
:1002300000000020064B01221A708023DB0519689C
:10024000044A0A40802149020A431A607047C046A6
:1002500009000020FFFFF0FF00B5064B72B61A78C8
:10026000002A04D0C046C04662B630BFF6E762B688
:1002700000BDC04609000020054B01221A708023F2
:10028000DB05D96B802252040A43DA637047C0460B
:100290000100002000B5054B72B61A78002A03D081
:1002A000C046C04662B6F7E762B600BD0000002057
:1002B00000B50B4B0B4A72B61978002902D11178A0
:1002C000002904D0C046C04662B630BFF3E762B62C
:1002D000054A1278002A01D001221A7000BDC046DA
:1002E00001000020000000200200002000B5FEE711
:1002F00000B5FEE700B5FEE700B5FEE700B5FEE796
:1003000000B5FEE700B5FEE700B5FEE700B5FEE785
:1003100000B5FEE700B5FEE700B5FEE700B5FEE775
:1003200000B5FEE700B5FEE700B5FEE708B5FF2320
:1003300000221B041A60BFF36F8F00F06DF808BD38
:10034000FFFFFFFFFFFFFFFFFFFFFFFFFFFFFFFFBD
:10035000FFFFFFFFFFFFFFFFFFFFFFFFFFFFFFFFAD
:10036000FFFFFFFFFFFFFFFFFFFFFFFFFFFFFFFF9D
:10037000FFFFFFFFFFFFFFFFFFFFFFFFFFFFFFFF8D
:10038000FFFFFFFFFFFFFFFFFFFFFFFFFFFFFFFF7D
:10039000FFFFFFFFFFFFFFFFFFFFFFFFFFFFFFFF6D
:1003A000FFFFFFFFFFFFFFFFFFFFFFFFFFFFFFFF5D
:1003B000FFFFFFFFFFFFFFFFFFFFFFFFFFFFFFFF4D
:1003C000FFFFFFFFFFFFFFFFFFFFFFFFFFFFFFFF3D
:1003D000FFFFFFFFFFFFFFFFFFFFFFFFFFFFFFFF2D
:1003E000FFFFFFFFFFFFFFFFFFFFFFFFFFFFFFFF1D
:1003F000FFFFFFFFFFFFFFFFFFFFFFFFFFFFFFFF0D
:10040000FFFFFFFFFFFFFFFFFFFFFFFFFFFFFF01FA
:100410004D314830434F3434F8B58023DB059968BB
:10042000802292000A439A6099688022D2000A438F
:100430009A609968802212010A439A6002F0D4FD02
:1004400000F056FD00F06EFD7F4BAA2218707F4B26
:100450001A7003F047FB002003F0DEFD002002F0DD
:1004600059FB7B4B7B4F0833DB7F5A4253411022B1
:10047000D21A794B1A703B78002B1DD1774A012490
:1004800013703C7000F090FA754B201C9A785A70EB
:1004900003F0C2FD02F0D4FC00F000FE8023DB0577
:1004A000596B704A0A405A6300F0D6FA02F07DFA9E
:1004B00000F0F4FD00F0BCFD684B1B78002B1CD055
:1004C000694C2378002B18D0684B13201B68984781
:1004D00000F06AFA02F080FD02F04EFC002000F00D
:1004E00009FC00F0C3FA624A01231370614A1380C9
:1004F00002F086FA2378002BFCD100F023FD564B46
:100500001A781E7873B20F2B17D005DC002B39D068
:100510000D2B00D094E02AE0112B21D003DB132B0C
:1005200000D08DE08AE04D4B00221A7000F05EFB97
:10053000514B1B78002B00D082E0494B587802F0D9
:1005400037FD434DE87B02F0C9FA4C4C6060287CD3
:1005500002F0C4FA1123A060EB56EA7B5343E36038
:100560003E4B00221A70464B187800F0C3FB3B4B01
:1005700000241C7000F070FA02F05CFD00F06CFAD0
:10058000354B1C70354B01221A7000F01DFAFFF735
:1005900073FEFFF740FE01203A49404203F038F96C
:1005A000324C06202368984702F0B0FD02F0C0FDEF
:1005B00000F0A8F823680720984703F06DF9324B44
:1005C0001B78002B1BD100F087FD2368082098477B
:1005D000FFF730FEFFF740FE00F0FDFD01F0FAFBF3
:1005E00001F03EFC236812209847284B1B78002B13
:1005F00001D101F0F7FD1D4B0D201B68984700F05D
:10060000BBF8214B1B78002B0CD101F069FD01F0E8
:100610004EFE164B0F201B6898471D4B1B689847D2
:1006200002F0B0F880230122DB055A70FFF740FE8C
:10063000184B0020185600F097FC01E000F00CFA6F
:10064000154B1E7017E7C046EE040020EF04002093
:10065000120D0020F904002064080020FA04002094
:10066000000E0020FFC0FFFFF60400200807002056
:100670007308002058080020F3040020F000002038
:100680002A110020EC130020F4130020F0040020B5
:1006900018000020CA0400203100002008B501F035
:1006A0009BFD124B1B68984711490E230022013B0A
:1006B000DBB2181C1430400008188280002BF6D1E1
:1006C0000C490A22013AD2B28B54002AFAD10A4BC1
:1006D0000A491B7802E0013BDBB2CA54002BFAD175
:1006E000034A1360064A136008BDC0461800002084
:1006F0005C0100201C110020CC0C0020A10C00206B
:100700000001002010B5144B1B78002B23D0134C94
:1007100000232370124B04201B6898472378114C48
:10072000002B03D1104B1B78002B13D00F4A012351
:1007300013702268022A03DCD21822600C4A07E0F8
:10074000FFF7ACFF0B4B0D221A700023064A236003
:10075000137000E0236010BD5E080020F31300203A
:1007600008070020B0040020AD040020F41300208E
:10077000A00C002064080020F7B57649002305226C
:10078000013AD2B2101C0E30C00008180424005FD9
:10079000002800D00123002AF2D16F4A6F49127855
:1007A00007E0013AD2B2101D4000405E002800D0A0
:1007B0000123002AF5D16A49002B04D10A6869484F
:1007C000824201D001320A60674900220A709342D6
:1007D00051D1624A1268002A4DD164480278041C43
:1007E000012A0AD162480578002D06D1614C0270B9
:1007F0002370614C0A70237015E0604B1B680E2B50
:1008000011DD2378012B0ED05D4A1368013313608C
:10081000042B08DD00231360574A1370544A1370E9
:10082000514B02221A70574B00221A70534B1A6018
:10083000554B1968914209DD01391960012900D031
:1008400086E01A60484B03221A7081E04F4A5049F3
:100850004E3212888A427BD04E490968914277DB3A
:100860004D4A3F48111C34310978006888426FDBDB
:100870003532127843E0444A00231360181C1A1CD6
:10088000191C344FD41974340025645F002C1DDD0D
:10089000424FD41974340025645F002C16DD2D4DB1
:1008A000DC195E197568676801957D1B01D42F1CE2
:1008B00001E0019DEF1BBDB26918F66BE56B89B2D3
:1008C000AC1B00D5741BA4B2201880B208320433CC
:1008D000282AD6D1264B1A782F4B002A19D02D4A18
:1008E0002F4912680A80198E264B8A4209DA1B7832
:1008F000002B2DD1214B1A680E2A29DC01321A60F7
:1009000026E001221A701D4A002313601C4A13605E
:100910001EE0194A1B8D1278002A0BD11C4A934203
:1009200003D01C4A12689A4204DA1E4B834201D358
:100930008B420DD20F4A002313700F4A0C491370DB
:1009400001220A700F490B70074B1A7001F044FC2A
:10095000F7BDC046C8020020CC0C002018010020C2
:10096000D8040020FFFFFF7FCA04002032000020CF
:10097000ED040020CB040020EC040020E80400205B
:10098000E0040020E4040020DC0400202A11002000
:10099000FFFF0000EC130020120D00209C0100203E
:1009A000481500206390000010B503F0C5F8054C11
:1009B00000202368984703F015F923680120984721
:1009C00010BDC0460807002010B51C4B19781C4B01
:1009D0004AB21C78002C22D01A4B00241B78A34268
:1009E0001DD1194BA14207D018490978A14203D162
:1009F00017490968A14203D00021196001240EE0C3
:100A000014491868C968884201DA01301860022A5E
:100A100010D00D4B02241B688B4203DA0AE063B24C
:100A2000934207D00B4A63B29B00D05802F086F87D
:100A3000024B1C7002F074F810BDC0462800002064
:100A40005E080020F504002044000020FC04002083
:100A500018010020F000002008B5FFF7DCFB802320
:100A60000122DB055A70FFF715FC08BDF0B587B011
:100A70000024FFF7F1FF524D0C21E879514A50E074
:100A800014264E434F1C7D001323039604970595AF
:100A9000013BDBB2002C1DD0039E4B4FF5186D00BF
:100AA000EE5F049F5D1C2D01ED196D00575BAD5A83
:100AB0000741F71B0541002F01DB751B00E0AD1B53
:100AC000039E6D10F718414EBE5DB54200DA351C2D
:100AD0003E4EBD55049F5D1C2D01ED196D00565B0A
:100AE000039D0641ED18B6B20196374F6E0002968F
:100AF00000956D46BC46AF88029D6646AF53002CFC
:100B000003D1324D009E745509E0632C07D1059D39
:100B1000AF5A019D07417E1B2D4F029DEE53002BC6
:100B2000B6D10139C9B2FF29AAD1254A294BD179B9
:100B30001B78244A3BE0013B2748DBB2274EC05CD0
:100B4000F75C0390002C1CD0254E9D00AD59039EF0
:100B5000781C013600018446301C60440496400035
:100B6000165A805A0E41AE1B0841002E01DB281A8E
:100B700000E0401B1B4D4010EE5CB04200DA301C20
:100B8000E854039D013701353F017F197F00D05B99
:100B9000134E08419F00B851002C08D1114E6D0032
:100BA000F454AD5A5E000D41281A0F4D7053002BBE
:100BB000C1D10134E4B2642C00D05AE707B0F0BDD3
:100BC0002A1100200008004092110020080E002089
:100BD000140F0020CC0C00201F4D00001D4D000004
:100BE00020070020FE0D002026110020F7B501F09F
:100BF000EFFE01F013FF0028FBD1384B1B78022BCE
:100C000009D0374B37494C331A7853425418E054C3
:100C100001339342FADD324E334F331C4C331C7890
:100C200064420CE0BA7880231219D2B2DB051A7143
:100C3000FFF712FF2878201802F0C2FD0134351C9E
:100C40004C352B789C42EDDD002624E02C782F1CBF
:100C500064424C3F19E0244B9A7880231219D2B297
:100C6000DB051A71FFF7F8FE2D7801A96519281C1C
:100C700002F0CEFD1B49019B4A5DFF2B00DDFF23E7
:100C80009A4200DA1A1C4A5501343D1C4C352B7827
:100C90009C42E0DD0136154A114D13784C359E42D9
:100CA000D4DB01F082FE2C780122121B0D4B0021B7
:100CB0000F480BE05D781E786D0075199E78AD19B0
:100CC000A84201DBA8B2111C013201339442F1DCCD
:100CD000054B9A785118C9B25970F7BDF30400203A
:100CE0002A110020B6040020000E002075110020FB
:100CF000FFFF0000F0B58DB082220290D200734851
:100D0000002103F0ADF8029C714A002C09D0714B10
:100D100052881B7B11B258B2884212DB531EDBB2E1
:100D20000FE00223D3565B005B421E1C083601DA3B
:100D300008235B42DBB20227002405930697039445
:100D400005E05A42D2B20126059203930696002787
:100D5000039C049714257DE06A461823995601F0F8
:100D6000A3FFFFF779FE5B4B0F269E576F46079652
:100D7000DB79002208930C23D8198256049EA446DE
:100D8000921B0B925CE01422101C58435F1C0997C5
:100D90000A90029C013AD2B2002C0BD01620584384
:100DA0004D4980184156079E0B9F8919C919073173
:100DB0000E2943D80999501C0001401847494000AA
:100DC000405A089C46492041081A291C59433F4E65
:100DD00089188C00A459844217DC241A271C8037F8
:100DE00001DA802464420A998E1876007F2C00DD97
:100DF0007F243C497452291C5943344C89188E0075
:100E00003051394864460C5418E0029E002E15D02B
:100E1000364FBC420BD04E000196019F314EBE5F53
:100E2000A419A04203DA30480C5C01340C54291C8C
:100E300059432E4C8918254889004450002AA8D1CE
:100E4000013BDBB2FF2B9ED1049E6446013C013680
:100E5000E4B204966F461421CB5760B2984200DB8F
:100E60007AE7029C002C2AD01A4B1F49DD7BDC7AE2
:100E70000C2320E00B269E42BF417F4214220397A1
:100E800014205843013AD2B2162680185E43475CBC
:100E9000B618BC46104FF75D3E1C6644AE19F6B25C
:100EA00002974654122A04D8039F002F01D1361905
:100EB0004654002AE4D1013BDBB2FF2BDAD10020FB
:100EC000011C01F0F1FE0DB0F0BDC0467408002019
:100ED000100700202A110020214D000000080040CA
:100EE000FFFF000092110020080E0020FFFFFF7F8F
:100EF00070B580232B250A4C5B006D42013BDAB2B2
:100F0000092106E056B25000C2B2002E01DA684054
:100F1000C2B201390029F5D1E254002BEED170BDE7
:100F20000005002010B50020A0220549031CD201B5
:100F30001C7801336040085C9342F9D110BDC04673
:100F40000005002008B5064B1B68002B06D0054B9A
:100F50001B78002B02D101F053FDFEE708BDC0460F
:100F60000C160020FB04002010B5041E27DD022C07
:100F700002DD032C23D132E0FFF790FB2048022C46
:100F800004D120495C2202F02DFF0BE01E495C22B7
:100F900002F028FF1D4B1B78012B03D01C4B0B20AC
:100FA0001B689847FFF700FD1A4B36331A781A4B27
:100FB0001A701B78102B22D101F0DEFE1FE0174BB8
:100FC0001A78002A05D0164A1168013111600022F2
:100FD0001A70144B1A68132A04DD00221A601022BA
:100FE0000D4B0BE00E4B1A683B2A08DD00221A60FD
:100FF0000D4B01201B6898470C4B01221A7010BD45
:101000002A110020404C00009C4C000032000020BF
:1010100008070020120D002064080020D4040020DE
:10102000D0040020CC04002064000020F70400203D
:1010300010B5164B00221A60154B012252425A601D
:10104000144B154C187E0138421E9041011C123180
:1010500021605A7E4042013A531E9A41131C0B33C1
:1010600063601523034023815242142313409620CA
:1010700063814900000102F053FEF0235B006361CD
:10108000C8239B00E0602061A36110BDC80200205E
:1010900000010020120D0020AC0C002010B50C49FE
:1010A0000D230022A0245800640042521819400069
:1010B00042520748013BF5D213230022591E06D3A2
:1010C000044C5B01C2521B191A800B1CF6E710BDC1
:1010D000000800401A08004000B50F4B0E215A5E70
:1010E0000E4B191C413109785B7F4A435BB2921168
:1010F0009A4200DA1A1C0A4B1A608023DB05196B2E
:1011000012050903090B11431963186B110B054AEA
:1011100002400A431A6300BD8C0400202A110020FB
:10112000100F0020FF00F0FF30B5039C002A04D10F
:101130008C2252426243D21106E0012A06D11922C2
:1011400052426243D211A21802601CE0022A03D16B
:1011500006226500624306E0092A07D1A200E500E5
:10116000A21A2D195200D211AA18EDE7151C6543D9
:101170000A2A01D1192202E00B2A03D18C226243F0
:10118000D211AD180560002B03D1E4016442E411D3
:1011900016E0012B03D1A3001B19DB110FE0022B7A
:1011A00001D164000CE0102B01D1240108E0112BC7
:1011B00008D1A200230152421B19141BE4111C196F
:1011C0000C6007E01A1C6243122B02D1E401E41107
:1011D00012190A6030BDF0B5822291B00021520090
:1011E000B94802F03DFEB94C8E2200215200201C6D
:1011F00002F036FE0E277F21FF22013FFFB23B1C8B
:1012000038339B00E31899711971DA715A71002F04
:10121000F3D1AF4BDF82AF4B9A680A2A01DC01326F
:101220009A60DA68002A01DD013ADA601A68112A48
:1012300001DC01321A605A68002A01DD013A5A6065
:10124000A44B00249D6816236B43049409930B97C9
:1012500067E11C685CE1631C691C9F4A1B015B1809
:10126000995C9E4A4E1EF6B20D2E5DD8099F9C4891
:101270005B003818049FC0190019C175D35A68461D
:1012800083819FB2924B0DA8DA8A0EA90132DA82CD
:101290002A1C231C0097FFF747FF8C4BB2009A18BB
:1012A00050680D9941185160321C0E329100591846
:1012B0004868D20084460E989A1860444860918825
:1012C000042079189180518901315181321C3832C2
:1012D000910059180856854200DA0D7192009A184B
:1012E000052151568D4200DD5571311C38318A007F
:1012F0009B1806229A56944200DA9C71734A8B001E
:10130000D318072159568C4200DDDC710E36F600E9
:1013100092190621535EBB4200DBF8E06B469B89C5
:101320005472D3801572F2E05B00D35A0393002B02
:1013300000D1ECE06B4F00230F930426BC460FAAAC
:10134000013EF6B26046684F815DBB5D091949B246
:101350005B1901315BB209015F480133CB18C15CF5
:101360000023C8B2471E0D2F03D909E00133DBB2B9
:1013700000E040B2D75C002F01D08742F6D1D154B3
:10138000002EDDD1331C0FAA9A5CDFB2002A04D0F4
:101390000133042BF7D11F1C02E0002F00D1B6E06F
:1013A00009994F4B049ACB189B183A1C1B190F3202
:1013B000DA75039B2A1C00930DA8231C0EA9FFF7C6
:1013C000B3FE391C0D9802F0ABFC391C06900E9848
:1013D00002F0A6FC391C0790039802F0A1FC7B1ECA
:1013E0004142002208930A910592384B02901EE078
:1013F000925D0136013A52B29100591848680E3296
:1014000084460698F6B284446046486091005918B4
:101410004868D200844607989A1884446046486019
:101420009188029841189180518901315181059A22
:10143000039811180A981218089805920FAA864264
:10144000D6DB0391905D013840B286009E19716829
:101450000E308C4606998C446146716086009E1958
:101460007168C0008C4607991B188C4461467160F6
:101470009888039EA4463118998059890131598171
:10148000012100233FE03C20C0186E46845D601EB1
:10149000039CC0B20590A05C461E0598F6B2B0420F
:1014A00006D214244443A619074C0120A05508E095
:1014B00014204643059C044836190596059C0126D0
:1014C0000655013218E0C046000600202C07002017
:1014D0008C0400209C130020000200400004004007
:1014E000F5130020A03F0000A43F00004CB20FAE57
:1014F0003619002203960694069C1019B842C2DBE6
:1015000001310133C9B2089EB342EFDB6446013CAE
:10151000514B5B689C4200DB9DE6049F013D163FFA
:1015200004974D4BDA68954200DB92E600250B9F4D
:101530002E1C4A4C73001B1974331B88002B32D0AD
:10154000341918B2039060680399C00102F0E8FBF7
:101550006060E06B0399C00102F0E2FB231CE063D2
:10156000E5331A7851B20A2901DC01321A70231CC2
:10157000E4331A7851B2002901DD013A1A70231CB4
:10158000E7331A7851B2112901DC01321A70E634BE
:1015900023785AB2002A01DD013B23700135EDB2F8
:1015A00004360E2DC5D12D4B2D4A1D600132D07F42
:1015B00013E03A1C0E32D10059180424095F0029A7
:1015C00009D0B900920059189A184C68566800283A
:1015D00001D04E6054600137FFB2AF42E9DB214ACF
:1015E000214B111C363137320F7812781F49039284
:1015F0001B780A6800250C1CBC4627E0013BDBB2C7
:101600001B4F58003E5E181D4000002E04DD0C3EAE
:10161000761018360E5200E00D52181D4000065B81
:101620000596002E12D0134FC75F04976F461437EC
:101630000026BE5F049F002F02DC664505DA02E04B
:10164000039FBE4201DA055300E00132002BD5D1E1
:1016500011B00A60F0BDC0469C1300202C0700208A
:10166000120D00202A110020CC0C002018010020AF
:10167000261100200C010020F0B5A64C431C8FB0B1
:10168000DBB20A932368071C0E37013B2360FB0083
:10169000E318039202930897051C04201F5E0E1C9A
:1016A00005970F1C0E37FB00E318049309970420DD
:1016B0001F5E05980697C71907978B00AF00E719BB
:1016C000E3187868059A5B68069950434B4307997D
:1016D000181802F025FB00B27860089B09989F005B
:1016E0008300E719E3187868059A5B680699504308
:1016F0004B430799181802F013FB00B27860281CBE
:1017000038308000201803990422043002F06AFB6C
:10171000049FFB88029F1AB20621795E914209DA82
:10172000029FFB80049F7B7A029F7B72049F3B7A1F
:10173000029F3B722A1C331C0E320E33D200DB0098
:10174000E318A4189988A2888A18A2805989628906
:101750008A18F1B2481C40B202901420684362819A
:10176000029C002220189A800490131C06910EE01F
:10177000142474430499A446781802998C4467444D
:10178000C15CFC5C2143C1540020F8540133013298
:10179000069CD2B2101940B25F4F0D28E8DD14202C
:1017A0006843BA190023C71911E0AB4205DA911B4F
:1017B0004C5D10782043485505E0AB4203DD1078BE
:1017C000F95C0143F9540021117001331432B34222
:1017D000EBDB039F68463F781021049708561627D5
:1017E000079047430022AC465EE0039C0020A178AE
:1017F0004A4C4DB27B191B1908950D934CE0089B80
:101800000D9CC31824180993E37D079D013B5519CE
:10181000DBB20B95029405936D46142463570F2B8E
:1018200037DD0023012506936D4204230092013B1E
:101830003B4CDBB2E4563B4A0C94D2560B9CA418AA
:10184000013416226243354CA418099AA2180C9C44
:10185000019214190C946478013CE4B20D2C0DD85B
:1018600064B2644501D0B44208D16A1C02D0A542DA
:1018700002D103E0251C01E001240694002BD6D1FF
:10188000069D009A002D04D06B461424E45C029B54
:10189000DC750131C9B20130039D03242C574BB2D2
:1018A0009C42ACDA013216370498039C01211318CC
:1018B00061565BB2994298DA237800205DB2013517
:1018C0001624AC461EE0039D67463A18A978624389
:1018D0004DB20135AA18114D52190AE01578013D93
:1018E0006DB2B54202D10AAF3F7817700131C9B26B
:1018F0000132039D0327EF574DB2AF42EEDA0133B9
:10190000DBB20130039F012179565AB29142DADAF3
:101910000FB0F0BD2C07002000060020F5130020BA
:10192000A03F0000A43F000010B50B78002404572E
:101930005AB2944200DD03704B78012404575AB226
:10194000944200DA43708B78022404575AB29442CE
:1019500000DD8370CB78032141565AB2914200DA00
:10196000C37010BDF0B58BB00024231C0E333C486F
:10197000DB00C31804215A5E002A6BD05A7A029207
:101980001B7A16221F1C013F7A430393354BD31851
:101990000193029B013318010593079055E0029EC5
:1019A000013E4BE00198172583195D577A1C013DD4
:1019B000711C0D2D41D8AC423FD0090188182A4B2B
:1019C00000914000C05A0690201C0E30C1002448EF
:1019D000844661440620095E2448408D844606986A
:1019E00081422ADC60464143881100998C46049963
:1019F0008C4461464900C95A88421EDA07998A1800
:101A00005200D35A984218DAA54202DA231C2C1C41
:101A10001D1C2A1C124B3832211C920038319A1896
:101A200089005268C918043109A80992FFF77CFFA0
:101A3000201C291C09AAFFF71FFE0236059A9642B0
:101A4000B0DD019B02372C330193039801300490E1
:101A50008742A4DD01340D2C87DD0BB0F0BDC046FC
:101A60002C070020F5130020000400402A1100205C
:101A7000F0B5CC4B9FB01A68CB4B012A09D1CB4AA9
:101A80001268012A05DD9E8C0C96DE8C09961B8D52
:101A900004E0DE8B0C961E8C09965B8C0D930D2456
:101AA0007CE114236343C24E5B199B5D002B00D184
:101AB0006EE1BE4EA700AB00F719F3187A680393E6
:101AC0005B68201CD31A0E300A93291C8300F3187C
:101AD0000E3105938B00F31806930490059B06982E
:101AE0005A6843680291D31A0A99D817CA170B93F8
:101AF0001B1889184340514008932B1C0791383319
:101B0000211C9B003831F31889005B688919043166
:101B10001DA81D93FFF708FF02997868CB00179066
:101B2000F31804215A5E04990292CB00039AF61826
:101B30005768029B0422B65E0299F3180393331C84
:101B40007B4348430399C01802F0EAF8059A1890BD
:101B5000069853680299199747681A937E434B4336
:101B60000399981902F0DCF80C221B90002114A8AC
:101B70001C9702F075F975226A441278762352B2E6
:101B800010926B441B7877265BB211936E443678C3
:101B90001DA876B21296002282561620571C424388
:101BA000844B0026D31805961393B5E0069EF601E4
:101BB0000E96119EA5E01398059943189B199B7DDD
:101BC0005BB20393013B0D2B42DD00200121494212
:101BD000844604230196013B774ADBB2D256774E06
:101BE0000492F656069A9219013216265643714A05
:101BF0009219029E9619049A0F96B218049252787E
:101C000052B2013A0D2A0ED8AA4201D0A24204D102
:101C10004E1C04D0914204D105E0012003E0111CC8
:101C200001E001229446002BD5D1019E013168D0FC
:101C30003201D219624B5200002813D060460028AE
:101C400010D10399985A0F3902F06AF803900BE00B
:101C5000002B56DBAB4201D0A34252D13201D21944
:101C6000574B5200D35A03930399002949D0029A43
:101C70000323D2010F920293029B0799013BDBB22F
:101C8000089A98000293049091420FDD1AAB1858FD
:101C90000F990B9A401A50430A9902F041F8049A9E
:101CA00017A98B58C0180E9BC01A0FE0049A17A9E9
:101CB00088580E9B0A99C01A48430B9902F030F8D5
:101CC00004991AAA53580F9AC018801AC317C0183B
:101CD00058407F2812DC02998B0080210A1A039851
:101CE00050214243D211C91804926A468858049977
:101CF00084460A1C6244503368461A5002990029EF
:101D0000BAD10136129B721E02929A4200DC52E74F
:101D1000059E01371636059610987E1E0696864259
:101D200000DC43E7169B149E9E4200DD1E1C0799B3
:101D3000089A244F91420ADD900101F0F1FF3F28FB
:101D400000DD3F203B5C2D21C81A0C9A0BE0079B5D
:101D50000899980101F0E4FF3F2800DD3F203B5C3B
:101D60002D210D9AC81A5043099A5343C01801F007
:101D7000D7FF7043159B8012834209DDA54202DA2A
:101D8000231C2C1C1D1C201C291C1DAAFFF774FCE5
:101D900001350E2D00D084E6002C15D0251C013C09
:101DA0007FE6C046E81300202A1100202C070020FF
:101DB00000060020F5130020A03F0000A43F000013
:101DC00000040040603F0000014B1FB01B68F0BDE5
:101DD00034000020F7B5012149420F221C4802F0CF
:101DE0003FF8FFF7BFFDFFF743FE1A4C0023261C08
:101DF0002360743601931F1C1D1C0021725EFBB210
:101E0000002A1DDD226801322260114AD5559D420B
:101E100014D00199AA000B195968A218281C516006
:101E20000E30DA6B8300C000E31820185A600430CB
:101E3000311C082201F0D6FF002333800135EDB2BA
:101E4000019A01370432083601920E2FD5D1F7BD21
:101E5000480800202C0700204943404340187047A1
:101E6000F0B5944B85B01B78E020002B01D08002A8
:101E700000E04002904A914BD18A1980128A5A8020
:101E80008F4B0022191C94310A80191C9A310A8048
:101E9000191C8C310A80191C92310A80191C84315A
:101EA0000A80191C8A310A80191C7C310A80191C8D
:101EB00082310A80191C74310A80191C7A310A8017
:101EC000804A1168021C884200DD0A1C01211A6048
:101ED00049420E227C4801F0C3FF7C48FF21382292
:101EE00001F0BEFF774B00241B680393784D2B5DF8
:101EF000002B3ED0774EA300F758774BE0206200CE
:101F00003F0140020126D3183F1876420025029374
:101F10001FE02B1C0E336B49DA008A180420125E76
:101F2000002A14D0AA008A18029950688A889B0057
:101F3000801A644A00B2D318029A5968138BC91ADE
:101F400009B2FFF789FFB84201DA2E1C071C0135E0
:101F5000EDB2039B9D42DCDB751C0AD05A4B5B49FA
:101F60009857B200013002D08858B84201DD8F5036
:101F70009C550134052CB9D10023524A504934E014
:101F8000514EF05C44B201342DD09C00C0B2161901
:101F900087007668CD196E601D1C0E350195AD0069
:101FA000AC46061C94440E36654602970394B7006F
:101FB0006C68CF197C60019FF600FD008E195519E1
:101FC0000436043590CD90C61D1C3835AD00383030
:101FD00055196D68800008184560039C3B48029DB8
:101FE00020583C4EA8510133DBB210688342C7DB56
:101FF0000023344C324949E0334FFA56013243D181
:102000001A1C0E32D200A2180420125E002A3BD005
:102010002F480022865CD5B2002E32D1D600761829
:1020200074360027F65F002E2BD127489E00C5543A
:1020300024489500861976684D196E601D1C0E3572
:102040000395204EAD00AC46101CB4440E306646DD
:1020500075688700CF197D60039FC5001948FE0091
:1020600086194D190435043681CE81C51D1C3835BD
:10207000144EAD0038327019920040688A185060D2
:1020800002E00132052AC5D10133DBB22268934256
:10209000B2DB124B0C491C1C0E34FF201A78042AA8
:1020A00002D88A5C1A7000E018700133A342F5D19F
:1020B00005B0F0BDED0400208C0400204815002080
:1020C000C80200202C07002065080020B013002063
:1020D0005001002028010020D00C002048080020DA
:1020E000F0B52548254A26490523013BDBB21D1CD6
:1020F0000E35EC0007190426BF5F002F1CD0141901
:102100000426A45F002C17D09F00D419C719646857
:102110007F685E00E71B7F103C19AD008F19BC8003
:102120005419451964686D681F1C651B0C376D10C8
:102130007F002C19CC530EE09D0055196D685C0092
:102140000C19A5801D1C0E35AD001C1C55190C3436
:102150006D6864000D531D1C084C0E35ED006519AB
:102160000426AD5F074E6F1EBD41F554002BBCD158
:102170002268034B1A60F0BD9C010020C8020020B9
:10218000D00C00205001002008B500210A220B4885
:1021900001F066FE0A4B0022191C94310A80191CBA
:1021A0008C310A80191C84310A80191C7C310A8008
:1021B000191C74310A801A6008BDC046BC02002098
:1021C000C8020020034B012252425A6000221A60CA
:1021D0009A6070471801002008B5FFF7D5FFFFF798
:1021E000F1FF08BD38B5244B0022244C5A60111C65
:1021F0000523013BDBB2181C0E30C00020184089BB
:10220000251C0918824200DA021C002BF1D11C485F
:102210002C680160184842601A48002C1EDD1A4BD9
:102220001C1DE48FA14203DB991DC98F8A4203DA8A
:102230000833DB8F9A4201DB012303700278134BD2
:10224000002A02D01A6801321A601A683C2A0BDD93
:1022500000221A600E4B0D221A7005E00D4A012172
:1022600011700A4A03701360064B1B78002B01D0D3
:10227000FFF7B2FF38BDC04618070020C802002093
:1022800040150020240100202A11002048000020D1
:10229000640800203000002038B559435043D4185A
:1022A000651040184019211C01F03AFD38BDF0B509
:1022B000A249A34A0B1C5A331B785668A14C5E43B3
:1022C0003425485F8BB022684F8EB61105230190EC
:1022D000013BDBB2191C0E31C90061188888002847
:1022E00024D0994D00B2ED5C002D12D13DB2A84230
:1022F00002DB4989B14219DA181C92490E30C0003C
:1023000008180021C1804181818090489D0029509A
:102310000BE0019DA84209DA0020C880488188802E
:1023200099008C46894965466850013A002BCFD107
:102330008749844D0A602B600524013CE4B2231CCC
:102340000E33DE000796AF19BA88002A00D191E05B
:102350007A4E12B2B18E7F4E08B2121A5210490054
:10236000511889B20191684680887B4AB880115D16
:10237000367848B20396B04202DA013111554FE087
:102380007648A600754982199B005068CA185268A1
:10239000AE1902922A687168EB1801322A605A68F5
:1023A00008930B1A0492DA179B1853409C46029A22
:1023B000049B9B1ADA179B185340634405935F4BA9
:1023C0003A229B5E1A1C0693059BFFF765FF049952
:1023D0000990069A0298059BFFF75EFF099B5F49EB
:1023E0007360089E079A7060544E3C20365E0296D9
:1023F0008E186A460423F05E0421515E431ADA17F0
:102400009B185340029AFFF747FFB880708979897B
:10241000029A431ADE179B197340FFF73DFF78813C
:102420004E4A484BA100501859184968261C0E36D0
:102430004160B100501859184968F600416091197F
:102440009E19B4460427BC44029604316046C0C8B5
:10245000C0C1211C383189005B185B685218536079
:102460003D4B039E1B57B34206DA0123029F5B429A
:10247000BB8001E0384E3255002C00D05DE731487A
:10248000364905680A68364B954227DA1A680132E0
:102490001A60002A1DDD021C1C60943212880B1C7D
:1024A00094331A80021C8C3212880B1C8C331A80D5
:1024B000021C843212880B1C84331A80021C7C326A
:1024C0000B1C12887C331A807430038874310B80A3
:1024D00005E08E22520001F085FC00E01C60194BE3
:1024E00001251A681D4B15481A601E4B00216D42CC
:1024F0005D6019603E3000781B4A0190AC4612784E
:102500000E1C1A480D1C35E0013AD2B2171D7F008F
:102510000297DC5B002C0ED0815C019FB94205D292
:1025200001318154029900245C5223E024B2013528
:10253000A6421DDB1EE084541CE0C0462A11002088
:1025400018070020C80200205001002028010020A8
:10255000E8130020681100201C1100209C010020BD
:10256000B802002018010020CC0C0020A10C002093
:102570009446261C002AC7D1291C444A6546196086
:102580005D60E0CBE0C2424B1B68012B5BD1414B4D
:102590000E201A5E1D2A64DC9A7C1420041C54430D
:1025A000DB7C3D49E418651E6D006D5E033522DA63
:1025B00002346400645E02341DDA541C4443E4189F
:1025C0006400645E052C06DD941C6043C018400066
:1025D000415E013141DB541E142044432E49E4186E
:1025E0006400645E052C06DD941E6043C018400044
:1025F000415E013131DB1420041C5443E4182649A8
:10260000023C6400645E05342BDA541E4443E41833
:102610006400645E052C06DD941E6043C018400013
:10262000405E013019DB541C14204443E41864005C
:102630000C5F052C15DD02325043C3185B00CB5EE6
:1026400001330EDA09E0022B0BD1124A937F032BE0
:1026500007D9D27FD318062B03DD104B1A6901323C
:1026600001E00E4B00221A610D4B1A780B4B002A29
:1026700001D000221A611A69032A04DD00221A61BE
:10268000084B0D221A700BB0F0BDC0460C010020A3
:10269000C80200208C04002092110020840C00202D
:1026A000ED04002064080020F8B5344D041C0A2312
:1026B000EE5E036869681801C31A5801C90101F088
:1026C0002FFB361826600823EF5EC8206368296850
:1026D0008000C901584301F023FB2A693F18676055
:1026E0002749964207DA0631CB7FB61A5E43B61108
:1026F000921922600CE0F0235B009E1B964207DAE1
:102700000631C97FB61A4E43B61192199B1A23603F
:10271000EB681B499F4207DA0431CA7FFF1A57430F
:10272000BF11DB1963600CE0C8229200D71B9F42E7
:1027300007DA0531C97FFF1A4F43BF11DB19D21ADF
:1027400062600F4A2168931CDB7F101C994206DDF2
:102750000A4A5269D51AA94202DB013AD31A236008
:10276000C21C6168D37F994206DD044A9269D01A7F
:10277000814202DB013AD31A6360F8BDAC0C002041
:10278000120D0020F0B5484E85B00524013CE4B29E
:10279000211C454A0E31CB00D31804201B5E002BB0
:1027A00062DD201C414B1430400018180425405FA6
:1027B000002849DD3E4B1A5D3E4B002A01D13F33D4
:1027C00000E040331F78A300F3185B68684600936D
:1027D000231C0E339B00F3185B680193FFF764FF23
:1027E000324D6300EB1804201B5E02A80293231CE9
:1027F0000C335B005B5F0393FFF756FF029B009A6D
:10280000291CD31AD8171B184340BB4207DA019A78
:10281000039BD31ADA179B185340BB4224DBA20058
:10282000B21852686300CB189A80221C0E329200B4
:10283000231CB21852680C335B00EA521C4B1A5D21
:10284000002A11D101220EE0A500551960006D6823
:102850001818890085805218201C52680C304000DE
:10286000C252134B00221A55201C0F4A0E30211C55
:10287000C0000E4B14311018490080885918888008
:10288000002C83D111680C4A19600C4B1C1CE0CC45
:10289000E0C20122002902D11A68531E9A41084B56
:1028A00005B01A70F0BDC046C80200205C010020CF
:1028B000BC0200202A110020000100201801002085
:1028C000FC040020EFF30880704700BA704740BA5C
:1028D0007047C0BA70471F23420918400123834044
:1028E000181C024B9200D0507047C04600E100E037
:1028F0001F234209184001238340181C2032024B39
:102900009200D0507047C04600E100E01F2342090A
:10291000184001238340181C6032024B9200D050B3
:102920007047C04600E100E070B5002816DAC0B27A
:102930000F230340083B134A9B089B009B1803226C
:1029400010409040FF225D68141C84408901A5431B
:102950000A408240281C1043586011E0032482087A
:10296000094B2040C032A0409200FF24D558261CBD
:1029700086408901B5430C408440281C2043D05038
:1029800070BDC04618ED00E000E100E08023DB05EB
:102990001A6B1F218A4315210A431A635A6B0F21B0
:1029A0008A430E210A435A637047074B3F20196838
:1029B0008023DB0501390140044A586B09020240BB
:1029C0000A435A637047C046A40C0020FFC0FFFFB3
:1029D0008023DB05596B034A0A40802189000A43A2
:1029E0005A637047FFC0FFFF704770478023DB05C5
:1029F0005969082211435961D9689143D9607047D8
:102A00008023DB055A6908218A435A617047802375
:102A1000DB055A6908210A435A6170478023DB05A8
:102A200058690823184043425841704730B5A023E5
:102A3000DB051A68012082431A601A6810218A4354
:102A40001A601968204A80240A40802109020A433A
:102A50001A601A681D49E4000A4022431A601C6883
:102A60008022120614431C601D68194C2C409025CE
:102A7000ED052C431C605C68204358605868014099
:102A80008020400001435960586812490140C0202D
:102A900080020143596058680F49014059605868E5
:102AA0008021890501435960586880214905014307
:102AB000596019680A431A60C04680225968520456
:102AC0000A435A6030BDC046FF0FFFFFFFF8FFFF0B
:102AD000FFFFFF80FFFFF8FFFFFFFFFE38B5094B48
:102AE00009495A78DC785143084B051CC918084835
:102AF00001F016F9064B291C01345843A14001F09E
:102B00000FF938BD000E002044FEFFFFFE24020036
:102B100040420F00014B18707047C0460200002071
:102B2000054B19688023DB05DA6B0902120E090ACE
:102B300012060A43DA63704704000020014B186054
:102B40007047C04604000020024B187843425841A9
:102B50007047C0460100002070B51349134B042490
:102B60001960134B134D1A6822431A601A68022425
:102B7000A2431A601A68012422430F4C1A600022F3
:102B800022600E4A11602E78ED7870430135E840DE
:102B9000091A1160206811688842FBD21A68012165
:102BA0008A431A6070BDC046FFFFFF0014E000E0DA
:102BB00010E000E0000E002018E000E00C0700200C
:102BC00001304300181840187047F0B58DB003ACC1
:102BD0000091071C0021201C242201F041F90C2542
:102BE000013DEDB2234A281C0321565D01F08EF809
:102BF0000C23CCB25C4376B203AA6B1C301C0321BD
:102C00001419019301F08CF8019A40B280002389D5
:102C10008240101C18430123B3401E1C638820818E
:102C20001E436680002DDBD103240C25009B013C54
:102C3000E4B2002B08D02B1C634303AAD3180E4A1E
:102C40000121D257914059602E1C664303AB9E1957
:102C50007B1C211C7381381CFFF7B2FF6843074AB5
:102C6000311C80180C2201F0BDF8002CDED10DB013
:102C7000F0BDC0460E4D0000F84C0000000C0040B6
:102C800010B5012040420021FFF79FFF0024201CC7
:102C900001210134FFF799FF132CF8D1201C0121E9
:102CA000FFF793FF10BD7047F0B587B003900F1C7E
:102CB00015250021049100236A462A499382C97B85
:102CC000013D49B26E1E02910C24013CE4B2009514
:102CD000002D17D00023022F0FD0012F04D0142273
:102CE0006243214B9219D356162262431F4992190F
:102CF0005256029952187A439B18039A0F219B1837
:102D000019400091201C032101F000F8184BC9B2B2
:102D1000490001911857032101F002F8009A40B2CE
:102D200080008240101C019A04A9535A18430B1CBE
:102D3000D052002CC9D10324013CE4B2211C301C28
:102D4000FFF73EFF0C21484363006A4610339B5A4D
:102D50000849425A4352002CEED1002DA9D107B0A8
:102D6000F0BDC0462A110020080E0020214D0000B1
:102D70000E4D0000000C004070B5274A8023DB0593
:102D8000147C9D68072125480C40240328402043DB
:102D900098609C68224820409860947A03209D683F
:102DA000044020482404284020439860547A3F205F
:102DB0009D6804401C48A404284020439860107A71
:102DC0009C680140080619492140014399609868B0
:102DD000802109050143164899600488191C38317F
:102DE0000C7085789E6B7F21124C0D4034402D0273
:102DF0002C439C6304799D6B0F480C4028402404AD
:102E0000204398639279986B11400A060B49014060
:102E10001143996370BDC0462A110020FF8FFFFF48
:102E2000FF7FFFFFFFFFFCFFFFFF03FFFFFFFFF838
:102E300010070020FF80FFFFFFFF80FFFFFFFF80E4
:102E400070B58023DB0559684D4A0A405A60042258
:102E50005A625A61C046C046D969114201D04D211B
:102E600003E0D969114202D14621464A117000227D
:102E70003F205A629A62DA601A6158619A61424A46
:102E80000124507880211871D0785D6804403F4853
:102E9000A407284020435860107903245D6804404B
:102EA0003B48240728402043586055790F205E682E
:102EB000384C05402D0434402C435C609579364CE9
:102EC0005E6805402D0634402C435C60D2795C6816
:102ED000104002053148C905204010435860304B6E
:102EE0008A681B7D002B03D080231B01134301E064
:102EF0002C4B134080248B60E405FFF73DFF236BD0
:102F0000602293432363236B8022134323630025B2
:102F1000FFF73CFDFFF78AFDFFF7B2FE281C657046
:102F20000221FFF701FD291C0120FFF7FDFC022013
:102F30000121FFF7F9FC0320011CFFF7F5FC042039
:102F40000321FFF7F1FC02210520FFF7EDFC281C0F
:102F5000FFF7C1FC0120FFF7BEFC0220FFF7BBFC1E
:102F60000320FFF7B8FC0420FFF7B5FC0E4B04214B
:102F70005D600E4B1A690A431A6162B670BDC046A5
:102F8000FFFEFFFF3E000020000E0020FFFFFFBFFE
:102F9000FFFFFFCFFFFFF0FFFFFFFFF0FFFF0FFF7F
:102FA000120D0020FFF7FFFFFCE100E000ED00E064
:102FB00000B58021C9050B795A1E984209DD01E050
:102FC000DAB20A7101338342FADD04E0D3B20B7145
:102FD000013A8242FADA00BD08B5024B5878FFF791
:102FE000E7FF08BD000E002008B50C4A0C4B0D4948
:102FF00001E001CA01C38B42FBD30B4B0B490022FA
:1030000000E004C38B42FCD3FFF75CFC084B0022BA
:1030100000E004C38342FCD308BDC046A83F0000C3
:10302000000000204400002044000020C0150020C3
:103030000C160020F7B5294B00241C70284B211CCE
:103040005C603022274800F00BFF274B274A1C709A
:1030500001231370264A201C1370264BD9790C23A8
:10306000013BDBB2244E5D1C6A00945B14265E4378
:10307000224F5A000C41D453019613229C46013A28
:10308000D2B2531C1B011C4F5B195B00FE5A019FFF
:103090000E41BB181A4F9B00DE51A61B8019002A57
:1030A000EDD16346002BDBD1124B164DDE8D002E89
:1030B00002D140232B600BE0E42100F031FEB60189
:1030C000011C301C00F02CFE6E2800DD6E202860F4
:1030D0000D4B00221A605A60F7BDC0465E08002002
:1030E000840C00208C150020AC130020AA0C0020BA
:1030F000F21300202A110020000800407015002063
:1031000074080020C80C002020070020044A002377
:103110001370044A1370044A1370044A1370704702
:10312000100D0020A00C0020F0130020F41300204C
:10313000F0B5C34BA3B01C78002C00D00CE3C14AFF
:10314000C14812780378039201325D1C12015219B2
:10315000BE4F5200D25B5D009446BD4A6646A95AF6
:10316000BC4AD5792E418D1B52218E5EB446012674
:103170000896654509DC54320027D65F08A90A780D
:10318000B54200DB221CD2B208920133DBB20370DD
:103190000B2B09D90399AB4B01310022C9B2027044
:1031A0001970122900D91A70AB49AC4B0022AC4CF3
:1031B0009A605A611A62DA625A601A61DA619A6236
:1031C0001A60DA609A615A624A60FF230A604A8391
:1031D0008A820A830A82CA818A608A81CA778A7748
:1031E000CA748A749B492260A2606360E360CC79F0
:1031F0009C481494204119909B484D7800681A957A
:103200001B909A48182600781D271C90081C3930FE
:103210000078151C1D90964800781E908E571696C3
:10322000CF57161C1F97497E029249B218911092EF
:103230000C920D9215920B9206930F920E9311928F
:103240001292139217920C21099233E1059C4D1CA6
:103250000A95671C209D0597E3B2079300272B1959
:10326000059DDF750A9F2B01DB195D00774B5F5BC6
:10327000149D199B2F41DF1BFB431A9DDB171F4039
:10328000002D07D0219B7B4D5D192B5D1B9D5F435E
:103290006F433F1350239C461C9B774D002B13D14B
:1032A00064464C432D192C580395E51B14B2AC42CF
:1032B00000DAAAB26B460824E35EAB4201DDADB290
:1032C0000295039D2F50ECE063464B439C466544BA
:1032D0002B58049D5B119C460023ED5E03956546CB
:1032E000EB1B1D9D002D0AD07B00DB19039D019374
:1032F00067467B1B019F6546FB189B10EB1A1E9FC0
:10330000002F05D0039DEF18049D7F102F8001E052
:10331000049F3B80049D6F462D8803950C25EF5F2D
:10332000BC46099F3D1C654417B20995674502DA02
:103330006F460C25EA5B6F460825ED5B92B23D8136
:103340002FB26D460C35BC460027EF5FBC4503DD50
:103350006F460C25ED5B3D816F463F890297002B40
:103360003ADB132B03DD109DEF18BFB21097062B2D
:1033700006DD079F002F03D10C9F0137FFB20C978A
:10338000169DAB4203DB5F1B009DED1900956D465A
:1033900034350027EF5FBB4204DB079D9FB20D97DA
:1033A000159517911F9FBB420FDB0B9D8D4200DAD5
:1033B0000B91069F8F4200DD06910F9DA54200DA1A
:1033C0000F940E9FA74200DD0E94059D9FB22C0125
:1033D0000A9D641964001DE0119FFF1A11975C1C7F
:1033E00006DA079D002D03D1129C0134E4B2129439
:1033F000189FBB4201DCDC1B361913AD00242C5F87
:10340000A34201DC9FB21397059D0A9F2C01E4198A
:10341000640000270D4D2F53079C022C41D80A2B26
:103420002CDD0E4C1F1C243405590A3FAC46674462
:1034300007510A4C0C3407599F4232DA30E0C0463B
:10344000100D0020B5040020B40400200008004046
:10345000701500202A1100208C0400206C00002030
:103460009C130020FFFF0000C80C00205E08002015
:10347000ED0400206B4E0000740800201F1C0A376A
:103480000FDAB64F1D1C0A350395C559B44CAC462E
:10349000039D2F1CB14D6744475107599F4200DDE2
:1034A0000351049F059B023704300497132B00D06F
:1034B000CCE6009D0139C9B2FF2910D028234B4327
:1034C000A84C16274F431B190493A74B0020FB1849
:1034D000209314234B43041C21930095B7E6A34C7F
:1034E00008206F46C75B228334236A469A5A0CA988
:1034F00017AB1B786783097810A815AF00883F7851
:10350000E177E281A3740699994B0F9AA081E77441
:103510000B980E9F1A60D96013AA12A998605F6079
:103520001198944B09781288A060A1772560002734
:10353000D95F6660A282099800F0F2FB8E4BA083EF
:103540001B78002B5FD08D4B1A78002A54D1002DA8
:103550000EDDAB015B429B119E420FDA61235B42A1
:103560005D43AD111335EA17F30FB5425A4105E03B
:10357000002D03D10122143600DB2A1CD2B2032312
:103580002AE008CD232B0BDC754C8B00E358232459
:10359000DE1701276442A3427E417342184000E0D7
:1035A000002001316145ECDB63460121002A12D184
:1035B000011E10D06A499D0048196D58C6686D42B9
:1035C0000121AE4207DB456A80692D0140420001BE
:1035D000854200DB111CCAB2013BDBB2FF2B05D0D8
:1035E0005F4D01200C3500219C46DBE7002A0AD004
:1035F000634B01221A7006E000239D4201DDAD19E4
:10360000EB0F5F4A1370594B5E4A0E25595F927E4D
:10361000914203DA14269B5F073302DA5A4B0122E8
:103620001A705A4B5A4A1B78002B0AD1089F002F58
:1036300007D0584901230B70534913700B7056493A
:103640000B701178002900D086E04E4A534BD07998
:103650001B780490101C56300025445F101C059404
:1036600058300027C65F069650780790927E581E05
:1036700003924B4A44001268A44608923F4A494CC0
:103680001278800002926444424A8446029F46486F
:103690000A94604416787C427C413B4A6442157827
:1036A00009943D4A0A9C12780B94AC463FE03F4D8A
:1036B000013BEC563E4DEF56651C01373F017F192B
:1036C00002977D003B4F7F5B3B4D029767007C5B21
:1036D000049D029F2F412D4DBFB22D78E71B002D79
:1036E00009D1059CA74202DC069DAF4203DA012204
:1036F000111C9446161C079CBFB2002C04D02F4D01
:10370000ED5C6F43BF11BFB20568039C6D11ED1BEB
:10371000ADB22FB2A74200DB0121089F002F01DDCF
:10372000099C25400B9C04382580023C0B94002BFF
:10373000BDD11848654606701348057014480170DD
:1037400015490A701A1CA02501336D005919194E2C
:10375000490072520C2BF6D123B0F0BD840000203A
:103760006C00002092110020F51300208C04002032
:103770009C130020A80C00205E080020ED0400200F
:10378000AD0400202A110020A00C002033000020EE
:10379000F0130020F4130020D4040020CC0C0020EF
:1037A0009C01002026110020200700201F4D000052
:1037B0001D4D000000080040701500206F4F0000F4
:1037C000F7B50F4B0F4A104FD9790C23013BDBB2F1
:1037D0005C1C6400145B451C07D15E0001960C4123
:1037E000261C0A4D019C665307E0A44614245C4342
:1037F00065462418A4000D41E551002BE6D1F7BD24
:103800002A110020000800407408002070150020D4
:10381000F7B51D4B0025DE798C460C23013BDBB24E
:10382000411C03D1194A5900895A05E01421594312
:10383000174C09188900615A5C1C164A6400A75A83
:103840003741C91BCF17C91979406D18411C0DD1DB
:10385000A15A5A003141019200916F463A880B49B2
:10386000019F7A520B4F0021E15308E00949675A42
:1038700014245C4306492418A40037416750002BE8
:10388000CCD161460D60F7BD2A11002070150020D3
:103890007408002000080040F7B5814B1B78002B0E
:1038A0002BD0804B804E1878804B44B219685B68EF
:1038B000A200CB189351411C0023271CC9B21A1C2B
:1038C0000C37A51A00D5BD1AAD00AD595B190D1CFA
:1038D0000B2901D90C3DEDB2AD0075590131013212
:1038E0005B1BC9B2062AECD101306E4AC0B210701F
:1038F00040B20B2801DD002111706D4A1278002AB8
:1039000000D0CBE06B4A1420115E8B4202DA6A4B86
:103910000121197065491823C85E1A240B5F917D37
:10392000C31A8B4206DC654B1A7851B20132022968
:1039300005DD05E0D27D934202DB604B00221A7068
:103940005D49574B0A78002A43D05C4A1278002A16
:1039500004D1187800283CD00A703AE0032A38D104
:103960001C780C21564A1AE014254D431323013BC1
:10397000DBB2002C08D1EE18B700D0597600400118
:10398000D051504FBC5308E0EF184E48BE007F00A6
:10399000C75F90597F01C71B9751002BE7D10139B1
:1039A000E2D23F4A00231178994205D101231370D6
:1039B00008E05818026301E03B491A1C043B1C1C38
:1039C0003434F6D13C4B00221A703F4B01221A705E
:1039D00064E01A783D4B002A06D13B4A0121117060
:1039E0001A6852181A6059E000221A60384B344A9B
:1039F0001F782E4B1C269B5FD91758184840019002
:103A00000C2120E014254D431323013BDBB2002F92
:103A100008D0EE18B00074002A4E345F1658341BDC
:103A200014500EE0E818274C86004000205A04B2DB
:103A3000072C00DD0720019C00B2A0409459201AF9
:103A40009051002BE1D10139C9B2FF29DAD1194BCC
:103A5000DC7E1F4B1B78002B01D164B201E0642493
:103A600064421C4B1B78002B18D11B4B1B4A1B7844
:103A70001B4811E0013BDBB29D00A958002903D08F
:103A80005E00865FA64204DA5E00865F9D007601D6
:103A900000E07600891BA950002BEBD1F7BDC04692
:103AA0005E080020AC1300208C1500208C04002040
:103AB000A00C00202A110020F2130020AA0C0020E4
:103AC0007408002092110020F4130020CC04002080
:103AD000ED040020F0130020CC0C00202007002073
:103AE0002611002010B507495C22074800F07AF93A
:103AF000064C0749201C382200F074F9A27B054BC4
:103B00001A6010BD404C00002A110020120D002048
:103B1000084C00004415002008B50449044B4143FB
:103B20000448C91800F0FCF8C0B208BD44FEFFFF0D
:103B3000FE24020040420F0070B5234C0023E370C6
:103B40000225224B2571E5719E78042E07D1B02005
:103B5000A070FFF7E1FF062320706371A5711C4B75
:103B60001B78AA2B2AD11B4B1B4A1B78127858B200
:103B700051B240181949097849B2401818490978D2
:103B800049B288421AD1022E05D0043E72425641F3
:103B90007642334000E0131C0B4A0C4994784C31B8
:103BA000097858B220184018FF2803DDC943C9B26C
:103BB000917003E09178CB18DBB29370024CA0783F
:103BC000FFF7AAFF207070BD000E00202A11002010
:103BD0000001E0000101E0000201E0000301E0005B
:103BE0000401E00038B5124C124D2378FA209A00F7
:103BF000D3189B10DBB22B802378800058430E4BE8
:103C00009988C90000F08CF8C1B26980237823201C
:103C10005843C90000F084F8084B02221A70084B80
:103C2000E4221A80074BC0B23F22A8801A6038BD38
:103C3000000E0020100700202A110020CC0C0020CC
:103C4000A80C0020A40C0020704710B51C1C029B7F
:103C500088420ADB904207DA1B1B401A5843511A6C
:103C600000F05EF8241800E01C1C201C10BDC046AB
:103C700002B4714649084900095C49008E4402BCFF
:103C80007047C046002934D00123002210B4884276
:103C90002CD301242407A14204D2814202D209017B
:103CA0001B01F8E7E400A14204D2814202D249009C
:103CB0005B00F8E7884201D3401A1A434C08A0423F
:103CC00002D3001B5C0822438C08A04202D3001BD5
:103CD0009C082243CC08A04202D3001BDC082243EC
:103CE000002803D01B0901D00909E3E7101C10BC10
:103CF0007047002801D00020C04307B4024802A149
:103D00004018029003BDC046D90000000029F0D041
:103D100003B5FFF7B9FF0EBC4243891A1847C046E6
:103D2000002941D010B4041C4C40A44601230022B9
:103D3000002900D54942002800D5404288422CD3B2
:103D400001242407A14204D2814202D209011B01AD
:103D5000F8E7E400A14204D2814202D249005B00AC
:103D6000F8E7884201D3401A1A434C08A04202D314
:103D7000001B5C0822438C08A04202D3001B9C0855
:103D80002243CC08A04202D3001BDC0822430028B7
:103D900003D01B0901D00909E3E7101C6446002C7D
:103DA00000D5404210BC7047002806D003DB00203D
:103DB000C043400801E08020000607B4024802A189
:103DC0004018029003BDC046190000000029EBD046
:103DD00003B5FFF7A7FF0EBC4243891A1847C04638
:103DE0007047C046F0B5051C0F2A2FD90B1C0343A2
:103DF000051C9C072CD10C1C031C151C2668103DAF
:103E00001E6066685E60A6689E60E6681034DE60CC
:103E100010330F2DF2D8131C103B1B0901331B016B
:103E2000C518C9180F231A40032A0FD90E1C2C1CC1
:103E3000131C80CE043B80C4032BFAD8131F9B08AD
:103E400001339B0003242240C918ED18002A05D035
:103E50000023CC5CEC5401339342FAD1F0BDC04650
:103E600070B5830742D0002A3FD0013ACEB2031C7E
:103E7000032503E0541E002A37D0221C1E70013394
:103E80002B42F7D1032A28D9FF250D402C022543C8
:103E90002C0425430F2A13D91C1C161C103E256028
:103EA0006560A560E56010340F2EF7D8141C103C37
:103EB0002409013424011B190F242240032A0CD9A0
:103EC0001E1C141C043C20C6032CFBD8141FA40881
:103ED0000134A40003252A401B19002A05D0C9B2C9
:103EE000013A19700133002AFAD170BD031CC9E7E9
:103EF00070B5114B114A1C6811688C4218D01B68B0
:103F000016680F4ADBB21568F6B206240F2101309D
:103F1000221C5A43AA1812780A40824209D05A1C1D
:103F2000D2B21D3BDBB21D2A00D8131CB342EFD125
:103F3000044B18B270BDC046A4000020A0000020B1
:103F40002C000020FFFF000000B5074A074B106857
:103F50001968884202DB10681B6802E010681B6861
:103F60001E30C01A00BDC046A0000020A4000020E2
:103F700000010203040405060708090A0B0B0C0DD7
:103F80000E0F101111121314151516171818191AEF
:103F90001B1B1C1D1D1E1F1F202121222323242427
:103FA0002525262727282829292A2A2B2B2C2C2D82
:103FB000FF00000100FF0100000000000000000001
:103FC00000000000000000000000000000000000F1
:103FD00000000000000000000000000000000000E1
:103FE000FF0000004A0D002001FF0201010400044F
:103FF00044000C060403410001000000FFFFFFFF26
:10400000FFFFFFFFFFFFFFFFFFFFFFFFFFFFFF447B
:104010004D3148305052343400B5002802D00128C8
:1040200015D102E00A4A0B4B10E00B4A0B4B1A6009
:104030000B4A0C4B1A600C4A0C4B1A600C4A0D4B85
:104040001A600D4A0D4B1A600D4A0E4B1A6000BDE6
:10405000DD40000008070020E14200006800002069
:10406000154600006400002065460000180000208E
:104070005D4A0000140000202143000010000020D1
:10408000794000000C00002008B5124B1B88DBB201
:10409000AF2B1BD0B22B19D0102B19D1FEF7B7FCC8
:1040A0000D4A002313600D4A11680D4A12689142AF
:1040B00002D108E0C04600E00A4B013B002BF9D1D9
:1040C000FEF79EFC04E0084A136001E0FEF79FFC47
:1040D00008BDC0461C00002020000020A4000020D5
:1040E000A0000020E903000088110020F7B5013886
:1040F000132800D9C5E0FFF7BBFD0A12C4C4C4C42D
:104100001AC4C4C484C4C4C498C4C489ABBF5D4BBE
:104110001A785D4B1A705D4B9A785D4B83E0FA20FC
:10412000C000FEF719FD5B4B00229A61A9E05A4BD3
:104130001B78002B37D0594B1B78002B33D1584BB1
:104140001B780193574B1D68002D00DC01250C24C2
:10415000554E25E01A0112195200925B013B80185E
:10416000514F002BF6D10199002901D0132103E012
:104170001321FFF7D5FD291CFFF7D2FD13231A01E8
:1041800012195200B95A091A002901DD89B200E05A
:104190000021013B9153002BF1D1013C002C02D0B6
:1041A00013230020D6E7414B1B78002B10D0404A48
:1041B0000E23D15E374B132908DC9168282905DDD1
:1041C00092894F2A02D85A68013200E000225A60D0
:1041D000324B1B78002B54D1364B1A68364B192AB8
:1041E00003DC2F4A1278002A01D0344A00E0344A16
:1041F000101C4130191C0078528E413108705A86CB
:104200003FE0304B02201B6898473AE0214B5A6848
:104210002D2A36DD224A1278002A32D15A60FDF763
:10422000DBFF294B10221A702BE0284B1B78002B48
:1042300027D01C4B1B68002B03DD254B1B68002B74
:1042400003D0244B1B78002B1BD0FDF7BBFF18E0DD
:10425000194B04229A70872252009A8020229A7168
:104260000522DA7101221A721E225A7200221A7075
:10427000194B9A785A7004E00F4811495C22FFF7F5
:10428000B1FDF7BDFF4B000004070020120D002018
:1042900005070020840C00205E080020F2040020A6
:1042A000ED0400205C01002000080040A00C00206C
:1042B0008C040020EC1300202A1100209C4C0000EC
:1042C000404C00006400002064080020FA04002034
:1042D0000001002024010020000E0020024B1A687B
:1042E000024B1A607047C046A0000020A4000020C6
:1042F00008B5FFF7F3FF08BD10B50A4C0622216888
:10430000094B51431B6809485918FFF76BFD236897
:104310000133236023681D2B02DD23681E3B2360CD
:1043200010BDC046A40000202C0000208C110020ED
:10433000F7B59A4A13881BB2102B00D17BE024DC1E
:10434000072B00D1F2E00EDC032B00D19AE003DC56
:10435000022B00D020E189E0042B00D19BE0052B4B
:1043600000D019E17DE00C2B00D1A2E006DC082B87
:1043700000D1E6E00B2B00D00EE194E00D2B00D134
:104380009EE00F2B00D007E12FE0B22B28D011DCEC
:10439000AE2B00D1ECE006DC1F2B00D1C3E06B2B71
:1043A00000D0F9E0DBE0AF2B00D1E8E0B12B00D08A
:1043B000F2E011E0C22B00D199E006DCC02B00D165
:1043C00087E0C12B00D0E7E089E0E32B00D195E046
:1043D000F62B00D0E0E094E0714A1178714A117038
:1043E000714A1178B222D31ABFE0FFF7ADFD6F4CCE
:1043F00020602368002B01D1FEF709FB2368062209
:104400005A43684B6A4C1A700025684E0FE0FFF75C
:1044100073FF684667490622FFF7E4FC00236946FC
:104420005A5CE2540133062BF9D101350634336866
:104430009D42ECDBB0E060495C4A0C6813680620E2
:104440005843002384420ADA594A0868554D101827
:10445000C45C581901330470082BF6D19CE013603A
:104460009AE0564B5A8E4F4B1A7095E0544A0F23E0
:104470001A27D15F527F091152B299431340494A1A
:10448000CB181370454B1A88032312B29A1A4C4B5F
:10449000998B444BD154414B1A88042312B29A1A77
:1044A000474B598B13E01288132112B29B1A3D4AD5
:1044B00099543A4B3B4A19880C2309B2591A8B5428
:1044C000364B1A883F4B12B219780D239A1A354B86
:1044D0004CE012884D2112B29B1A324A99542F4B4C
:1044E00045211A88C12312B29A1A2E4BD1542B4B54
:1044F0000F211A88C22312B29A1AE8E712883049AB
:1045000030E02D4C2E480021158826682DB28619E2
:1045100076185D1B234F4D19F678ED1901312E7079
:104520000A29F1D138E0128827491BE0128812B21B
:104530009B1A264A128811B2C943C9170A40194961
:104540005A54164B1988082309B2591A1F4B5B8815
:104550001AB2D243D2171340124A8B541CE01749A7
:104560001288363112B209789B1A0E4A995413E018
:10457000174B1A780B4B1A70FEF749FA0CE01549E5
:104580000D4A00230C681068064D2018C45C5819A9
:1045900001330470082BF5D1F7BDC0461C00002084
:1045A000EF04002010000050EE04002088110020CD
:1045B000A80000208C110020200000202A110020DB
:1045C000120D0020CC0C00203E00002026110020FF
:1045D000730800200C0F002073B50F4C0F4D009096
:1045E000019120681E211F302E68FFF7EFFBB142BA
:1045F000F7D0206806225043094B69461B681818FB
:10460000FFF7F0FB23680133236023681D2B02DDD5
:1046100023681E3B236073BDA0000020A40000207F
:104620002C00002007B5012802D002280BD101E0A0
:104630000F2300E00E236A4613700023537093701B
:10464000D3701371537100980199FFF7C5FFFEF7FE
:10465000D7F907BD07B506235A43019104490090D5
:104660000868694680181A1CFFF7BCFB07BDC046E6
:104670002C000020F0B5994B8DB01A78002A04D197
:10468000974B1978002900D01A7000260125371C95
:104690000395341C93483D1804216B5E08A80893C9
:1046A0001822AB5E0993FDF7FFFF8F4BF0180290C5
:1046B00074300021425E0490002A66DDA200D31807
:1046C0005A68DB6B06A806920793FDF7EDFF099B7E
:1046D000089A9C46854B05921B780699079A002BF1
:1046E00000D091E0824B604640331B78101A019352
:1046F000C317C018584084460198844507DA059BC3
:10470000C81AC317C0185840019B984203DB794B65
:104710001B5D002B03D12C202B5E002B74DC60254D
:104720006842039DE3B2284301930AAB0F2518703A
:10473000081228400590DA701011029AA843051C4F
:104740007A3205989970118805435D70FF22FE2921
:1047500000D8CAB2049D1A712A8811B2FF2900DD5F
:10476000FF225A710198FFF7C3FB021C501C04D1B1
:104770000A980B99FFF730FF03E00A980B99FFF7AF
:1047800069FF5D4B01221A553EE02C216B5E002B28
:104790003ADD594B1B5D002B36D0039D20220AAB1E
:1047A0002A4308991A70099A0D1212110F218A438F
:1047B0000D401543494A5D7009A908AD2D78097867
:1047C0001278E0B29D70D970002A08D0444A11785E
:1047D000002904D10E2119710123137001E0002278
:1047E0001A710AAD00236B71FFF782FB021C696826
:1047F0000A98531C02D1FFF7EFFE01E0FFF72AFFF2
:104800003D4B00221B191A70039D023701350134FC
:10481000039508360A2F00D03CE7384B5A68384BCE
:104820005B68501C35D09A424ED0591C17D040229C
:1048300001330AAC1343237000236370A370E37049
:10484000237163710520FFF753FB021C61680A980E
:10485000531C02D1FFF7C0FE01E0FFF7FBFE274A21
:10486000402351685B42481C0AAC03432370043167
:10487000002349006370A370E3702371535A05202D
:104880006371FFF735FB021C61680A98551C19D14A
:1048900014E0581C18D0402201330AAC1343237093
:1048A00000236370A370E370237163710520FFF729
:1048B0001FFB021C0A98511C03D16168FFF78CFE94
:1048C00002E06168FFF7C6FE0E4B1A680E4B1B68CC
:1048D0009A4201D0FEF794F80DB0F0BDED0400202F
:1048E000600000205C010020C8020020E9030020D5
:1048F0002A110020BC020020E4030020180100203F
:1049000000010020A4000020A000002070B5051CBC
:104910000E1C141C502805D1474B01201860FFF7CE
:104920007BFB88E0402806D1444B00221A73444B9D
:1049300001221A700CE04D280AD1424B26221A702F
:1049400028224A43404BD218404B1A60FEF758F8D1
:104950003B4B1A78002A6ED0281C41380E286AD8A2
:10496000FFF786F90810081F08306969693E475645
:1049700069696700334B01221A70354B1A80334A3C
:10498000136053E02F4BFF2C03D126221A70002412
:1049900001E002221A7014235E43A41964002D4B17
:1049A0000DE0284BFF2C03D126221A70002401E0D1
:1049B00002221A7014235E43234BA4196400E418E6
:1049C000224B32E01F4BFF2C03D126221A70002409
:1049D00001E002221A7014235E431F4BA419EEE774
:1049E00018491A4B1D4AFF2C08D002200870640099
:1049F0000CE01449154B1A4AFF2C04D119480078D1
:104A00004000C0B20BE0022008708440121907E099
:104A10000C490E4B144AFF2C04D112480078087040
:104A20001A6003E00120087014191C60FDF7E8FF0C
:104A300001E000221A7070BD441500202A110020E8
:104A4000F604002073080020921100200C0F0020B3
:104A500058080020140F0020080E00202611002006
:104A600020070020CC0C0020FE0D002008B5374B9D
:104A70001B88302B64D004D80A2B2AD01E2B63D17C
:104A800055E0A02B04D0B02B34D05F2B5CD108E0D4
:104A90002F4B18782F4B19782F4B1A78FFF736FFCA
:104AA00052E0A023DB0519682C4A0A408021C90185
:104AB0000A431A6019682A4A0A408021C9000A4339
:104AC0001A601968274A0A409021C9050A431A60EA
:104AD0003AE0254A01211170244A05205077101C24
:104AE000413003701423538702233E321370204B4E
:104AF000197029E0164B1B78002B25D08023DB058D
:104B000099681C4A0A409A6099681B4A0A409A6050
:104B100099681A4A0A409A605968802212010A4329
:104B20005A60C046C046C046C04662B60CE0084B5C
:104B30001A78134B002A01D0002204E0012202E07F
:104B4000034B1A780F4B1A7008BDC0461C0000209A
:104B50000C0000500E0000500D000050FF0FFFFF32
:104B6000FFF8FFFFFFFFFF80F00400202A11002064
:104B7000F2040020FFFDFFFFFFFBFFFFFFF7FFFF39
:104B80003300002032000020FFFFFFFFFFFFFFFF88
:104B9000FFFFFFFFFFFFFFFFFFFFFFFFFFFFFFFF25
:104BA000FFFFFFFFFFFFFFFFFFFFFFFFFFFFFFFF15
:104BB000FFFFFFFFFFFFFFFFFFFFFFFFFFFFFFFF05
:104BC000FFFFFFFFFFFFFFFFFFFFFFFFFFFFFFFFF5
:104BD000FFFFFFFFFFFFFFFFFFFFFFFFFFFFFFFFE5
:104BE000FFFFFFFFFFFFFFFFFFFFFFFFFFFFFFFFD5
:104BF000FFFFFFFFFFFFFFFFFFFFFFFFFFFFFFFFC5
:104C0000FFFFFFFFFFFFFFFFFFFFFFFFFFFFFF01B2
:104C10004D314830504234340246024B594C455FC6
:104C20004731460000480C3C1E14010101010005FB
:104C300000002003E001000000020232322B0101DB
:104C4000280032005E012C011400110732321000DE
:104C500001010400F4012204051E0000020F0F00F0
:104C6000020705009CFF0A140AF60BCE0108E802B1
:104C70008A0226025E013000320030006414EE0326
:104C80000000230014001F143C0161021E000101FA
:104C9000010C3C0028003200010101070A003C0021
:104CA0000A035D05AD00FF7F0080140001010400D0
:104CB000F4012204051E0000020F0F000207070086
:104CC0009CFF141E0AF60A9C000CC2019001FA0017
:104CD000A00018001900300064140000000050000B
:104CE000280028193C01C3043C0003010114FFFF04
:104CF000FFFFFFFF010101070A0050000A05FF7FC7
:104D00000080FF7F008023000908070605040302D6
:104D10000100141312110F0B0C0D0E0A00000001FC
:104D200002030405060708090A0B0209001313020F
:104D300009FDFDFDFDFDFDFCFCFCFCFCFBFBFBFBA4
:104D4000FBFBFBFBFE0000FDFDFDFDFDFCFCFCFC98
:104D5000FCFCFCFBFBFBFBFBFBFBFE0000FDFDFD8D
:104D6000FDFDFCFCFCFCFCFCFBFBFBFBFBFBFBFB89
:104D7000FB0000FDFDFDFDFDFCFCFCFCFCFCFCFB68
:104D8000FBFBFBFBFBFBFD0000FDFDFDFDFDFCFC5B
:104D9000FCFCFCFCFCFBFBFBFBFBFBFBFC0000FD51
:104DA000FDFDFDFDFCFCFCFCFCFCFCFBFBFBFBFB44
:104DB000FBFBFC0000FDFDFDFDFDFCFCFCFCFCFC28
:104DC000FCFBFBFBFBFBFBFBFC0000FDFDFDFDFD1D
:104DD000FCFCFCFCFCFCFCFBFBFBFBFBFBFBFC0016
:104DE00000FDFDFDFDFDFCFCFCFCFCFCFCFBFBFBFD
:104DF000FBFBFBFBFC0000FDFDFDFDFDFCFCFCFCEA
:104E0000FCFCFCFBFBFBFBFBFBFBFB0000FDFDFDDF
:104E1000FDFDFCFCFCFCFCFCFCFCFBFBFBFBFBFBD6
:104E2000FD0000FDFDFDFDFDFCFCFCFCFCFCFCFCB4
:104E3000FBFBFBFBFBFBFC00000000000000000094
:104E40000000000000000000000000000000000062
:104E50000000000000000000000000000000000052
:104E60000000000000000000000000000000000042
:104E70000000000000000000000000272628252474
:104E8000232323222120201F1F1F1E1E1D1D002A39
:104E9000292A2727252524242221202120201F20DC
:104EA0001F1E00292B2B29292726252523232223D2
:104EB00021222121211C002A2A2B292827262525C9
:104EC0002323222121212120201F002A2B2B2A28C5
:104ED000262525252322212121202120201F002ACB
:104EE0002A2B29282726252423222222212121207A
:104EF0002020002B2B2B292827262524242322227F
:104F0000212121212120002B2B2B29272726252475
:104F10002323222121212121201F002B2B2B292774
:104F2000272525242322222121212120201F002A78
:104F30002A2B292826252524242322222221222126
:104F4000201D002A2B292828252423232222212141
:104F5000202120201F1F002A2A282726242424233A
:104F60002120201F1F1E1F1E1E1D0000000000000C
:104F70000000000000000000000000000000003CF5
:104F80003CFFFFFFFFFFFFFFFFFFFFFFFFFFFFFFF4
:104F9000FFFFFFFFFFFFFFFFFFFFFFFFFFFFFFFF21
:104FA000FFFFFFFFFFFFFFFFFFFFFFFFFFFFFFFF11
:104FB000FFFFFFFFFFFFFFFFFFFFFFFFFFFFFFFF01
:104FC000FFFFFFFFFFFFFFFFFFFFFFFFFFFFFFFFF1
:104FD000FFFFFFFFFFFFFFFFFFFFFFFFFFFFFFFFE1
:104FE000FFFFFFFFFFFFFFFFFFFFFFFFFFFFFFFFD1
:104FF000FFFFFFFFFFFFFFFFFFFFFFFFFFFFFFFFC1
:10500000FFFFFFFFFFFFFFFFFFFFFFFFFFFFFF00AF
:00000001FF
